{
  "address": "0x3118A20c0Feb2383bDF7376D35284793f4d24449",
  "abi": [
    {
      "inputs": [],
      "stateMutability": "nonpayable",
      "type": "constructor"
    },
    {
      "anonymous": false,
      "inputs": [
        {
          "indexed": true,
          "internalType": "address",
          "name": "owner",
          "type": "address"
        },
        {
          "indexed": true,
          "internalType": "address",
          "name": "approved",
          "type": "address"
        },
        {
          "indexed": true,
          "internalType": "uint256",
          "name": "tokenId",
          "type": "uint256"
        }
      ],
      "name": "Approval",
      "type": "event"
    },
    {
      "anonymous": false,
      "inputs": [
        {
          "indexed": true,
          "internalType": "address",
          "name": "owner",
          "type": "address"
        },
        {
          "indexed": true,
          "internalType": "address",
          "name": "operator",
          "type": "address"
        },
        {
          "indexed": false,
          "internalType": "bool",
          "name": "approved",
          "type": "bool"
        }
      ],
      "name": "ApprovalForAll",
      "type": "event"
    },
    {
      "anonymous": false,
      "inputs": [
        {
          "indexed": true,
          "internalType": "address",
          "name": "owner",
          "type": "address"
        },
        {
          "indexed": true,
          "internalType": "uint256",
          "name": "tokenId",
          "type": "uint256"
        }
      ],
      "name": "NFTMinted",
      "type": "event"
    },
    {
      "anonymous": false,
      "inputs": [
        {
          "indexed": true,
          "internalType": "address",
          "name": "previousOwner",
          "type": "address"
        },
        {
          "indexed": true,
          "internalType": "address",
          "name": "newOwner",
          "type": "address"
        }
      ],
      "name": "OwnershipTransferred",
      "type": "event"
    },
    {
      "anonymous": false,
      "inputs": [
        {
          "indexed": true,
          "internalType": "address",
          "name": "from",
          "type": "address"
        },
        {
          "indexed": true,
          "internalType": "address",
          "name": "to",
          "type": "address"
        },
        {
          "indexed": true,
          "internalType": "uint256",
          "name": "tokenId",
          "type": "uint256"
        }
      ],
      "name": "Transfer",
      "type": "event"
    },
    {
      "inputs": [],
      "name": "_tokenIds",
      "outputs": [
        {
          "internalType": "uint256",
          "name": "_value",
          "type": "uint256"
        }
      ],
      "stateMutability": "view",
      "type": "function"
    },
    {
      "inputs": [
        {
          "internalType": "address",
          "name": "to",
          "type": "address"
        },
        {
          "internalType": "uint256",
          "name": "tokenId",
          "type": "uint256"
        }
      ],
      "name": "approve",
      "outputs": [],
      "stateMutability": "nonpayable",
      "type": "function"
    },
    {
      "inputs": [
        {
          "internalType": "address",
          "name": "owner",
          "type": "address"
        }
      ],
      "name": "balanceOf",
      "outputs": [
        {
          "internalType": "uint256",
          "name": "",
          "type": "uint256"
        }
      ],
      "stateMutability": "view",
      "type": "function"
    },
    {
      "inputs": [
        {
          "internalType": "uint256",
          "name": "tokenId",
          "type": "uint256"
        }
      ],
      "name": "getApproved",
      "outputs": [
        {
          "internalType": "address",
          "name": "",
          "type": "address"
        }
      ],
      "stateMutability": "view",
      "type": "function"
    },
    {
      "inputs": [
        {
          "internalType": "address",
          "name": "owner",
          "type": "address"
        },
        {
          "internalType": "address",
          "name": "operator",
          "type": "address"
        }
      ],
      "name": "isApprovedForAll",
      "outputs": [
        {
          "internalType": "bool",
          "name": "",
          "type": "bool"
        }
      ],
      "stateMutability": "view",
      "type": "function"
    },
    {
      "inputs": [
        {
          "internalType": "string",
          "name": "ipfsUri",
          "type": "string"
        }
      ],
      "name": "mint",
      "outputs": [],
      "stateMutability": "nonpayable",
      "type": "function"
    },
    {
      "inputs": [],
      "name": "name",
      "outputs": [
        {
          "internalType": "string",
          "name": "",
          "type": "string"
        }
      ],
      "stateMutability": "view",
      "type": "function"
    },
    {
      "inputs": [],
      "name": "owner",
      "outputs": [
        {
          "internalType": "address",
          "name": "",
          "type": "address"
        }
      ],
      "stateMutability": "view",
      "type": "function"
    },
    {
      "inputs": [
        {
          "internalType": "uint256",
          "name": "tokenId",
          "type": "uint256"
        }
      ],
      "name": "ownerOf",
      "outputs": [
        {
          "internalType": "address",
          "name": "",
          "type": "address"
        }
      ],
      "stateMutability": "view",
      "type": "function"
    },
    {
      "inputs": [],
      "name": "renounceOwnership",
      "outputs": [],
      "stateMutability": "nonpayable",
      "type": "function"
    },
    {
      "inputs": [
        {
          "internalType": "address",
          "name": "from",
          "type": "address"
        },
        {
          "internalType": "address",
          "name": "to",
          "type": "address"
        },
        {
          "internalType": "uint256",
          "name": "tokenId",
          "type": "uint256"
        }
      ],
      "name": "safeTransferFrom",
      "outputs": [],
      "stateMutability": "nonpayable",
      "type": "function"
    },
    {
      "inputs": [
        {
          "internalType": "address",
          "name": "from",
          "type": "address"
        },
        {
          "internalType": "address",
          "name": "to",
          "type": "address"
        },
        {
          "internalType": "uint256",
          "name": "tokenId",
          "type": "uint256"
        },
        {
          "internalType": "bytes",
          "name": "_data",
          "type": "bytes"
        }
      ],
      "name": "safeTransferFrom",
      "outputs": [],
      "stateMutability": "nonpayable",
      "type": "function"
    },
    {
      "inputs": [
        {
          "internalType": "address",
          "name": "operator",
          "type": "address"
        },
        {
          "internalType": "bool",
          "name": "approved",
          "type": "bool"
        }
      ],
      "name": "setApprovalForAll",
      "outputs": [],
      "stateMutability": "nonpayable",
      "type": "function"
    },
    {
      "inputs": [
        {
          "internalType": "bytes4",
          "name": "interfaceId",
          "type": "bytes4"
        }
      ],
      "name": "supportsInterface",
      "outputs": [
        {
          "internalType": "bool",
          "name": "",
          "type": "bool"
        }
      ],
      "stateMutability": "view",
      "type": "function"
    },
    {
      "inputs": [],
      "name": "symbol",
      "outputs": [
        {
          "internalType": "string",
          "name": "",
          "type": "string"
        }
      ],
      "stateMutability": "view",
      "type": "function"
    },
    {
      "inputs": [
        {
          "internalType": "uint256",
          "name": "tokenId",
          "type": "uint256"
        }
      ],
      "name": "tokenURI",
      "outputs": [
        {
          "internalType": "string",
          "name": "",
          "type": "string"
        }
      ],
      "stateMutability": "view",
      "type": "function"
    },
    {
      "inputs": [
        {
          "internalType": "address",
          "name": "from",
          "type": "address"
        },
        {
          "internalType": "address",
          "name": "to",
          "type": "address"
        },
        {
          "internalType": "uint256",
          "name": "tokenId",
          "type": "uint256"
        }
      ],
      "name": "transferFrom",
      "outputs": [],
      "stateMutability": "nonpayable",
      "type": "function"
    },
    {
      "inputs": [
        {
          "internalType": "address",
          "name": "newOwner",
          "type": "address"
        }
      ],
      "name": "transferOwnership",
      "outputs": [],
      "stateMutability": "nonpayable",
      "type": "function"
    }
  ],
  "transactionHash": "0x1f805c5b3fc72dbfed0b0a8e11109eea97f8a505d7bbe1dec3586ed3f185589b",
  "args": [],
  "numDeployments": 1,
  "solcInputHash": "73623be5649659c8fe18dc3bf5f392c8",
  "bytecode": "0x610100604052605060808181529062001da960a039600a90620000239082620001b0565b503480156200003157600080fd5b506040518060400160405280600f81526020016e105d985b185b98da1948109b195b99608a1b815250604051806040016040528060048152602001634641434560e01b815250620000916200008b620000b760201b60201c565b620000bb565b60016200009f8382620001b0565b506002620000ae8282620001b0565b5050506200027c565b3390565b600080546001600160a01b038381166001600160a01b0319831681178455604051919092169283917f8be0079c531659141344cd1fd0a4f28419497f9722a3daafe3b4186f6b6457e09190a35050565b634e487b7160e01b600052604160045260246000fd5b600181811c908216806200013657607f821691505b6020821081036200015757634e487b7160e01b600052602260045260246000fd5b50919050565b601f821115620001ab57600081815260208120601f850160051c81016020861015620001865750805b601f850160051c820191505b81811015620001a75782815560010162000192565b5050505b505050565b81516001600160401b03811115620001cc57620001cc6200010b565b620001e481620001dd845462000121565b846200015d565b602080601f8311600181146200021c5760008415620002035750858301515b600019600386901b1c1916600185901b178555620001a7565b600085815260208120601f198616915b828110156200024d578886015182559484019460019091019084016200022c565b50858210156200026c5787850151600019600388901b60f8161c191681555b5050505050600190811b01905550565b611b1d806200028c6000396000f3fe608060405234801561001057600080fd5b50600436106101165760003560e01c80638da5cb5b116100a2578063b88d4fde11610071578063b88d4fde14610230578063c87b56dd14610243578063d85d3d2714610256578063e985e9c514610269578063f2fde38b146102a557600080fd5b80638da5cb5b146101fa57806395d89b411461020b578063a22cb46514610213578063aa46a4001461022657600080fd5b806323b872dd116100e957806323b872dd1461019857806342842e0e146101ab5780636352211e146101be57806370a08231146101d1578063715018a6146101f257600080fd5b806301ffc9a71461011b57806306fdde0314610143578063081812fc14610158578063095ea7b314610183575b600080fd5b61012e61012936600461151b565b6102b8565b60405190151581526020015b60405180910390f35b61014b6102c9565b60405161013a9190611588565b61016b61016636600461159b565b61035b565b6040516001600160a01b03909116815260200161013a565b6101966101913660046115d0565b6103f5565b005b6101966101a63660046115fa565b610528565b6101966101b93660046115fa565b6105a3565b61016b6101cc36600461159b565b6105be565b6101e46101df366004611636565b610635565b60405190815260200161013a565b6101966106bc565b6000546001600160a01b031661016b565b61014b610722565b610196610221366004611651565b610731565b6008546101e49081565b61019661023e366004611719565b610740565b61014b61025136600461159b565b6107c2565b610196610264366004611795565b610954565b61012e6102773660046117de565b6001600160a01b03918216600090815260066020908152604080832093909416825291909152205460ff1690565b6101966102b3366004611636565b610a74565b60006102c382610b3f565b92915050565b6060600180546102d890611811565b80601f016020809104026020016040519081016040528092919081815260200182805461030490611811565b80156103515780601f1061032657610100808354040283529160200191610351565b820191906000526020600020905b81548152906001019060200180831161033457829003601f168201915b5050505050905090565b6000818152600360205260408120546001600160a01b03166103d95760405162461bcd60e51b815260206004820152602c60248201527f4552433732313a20617070726f76656420717565727920666f72206e6f6e657860448201526b34b9ba32b73a103a37b5b2b760a11b60648201526084015b60405180910390fd5b506000908152600560205260409020546001600160a01b031690565b6000610400826105be565b9050806001600160a01b0316836001600160a01b03160361046d5760405162461bcd60e51b815260206004820152602160248201527f4552433732313a20617070726f76616c20746f2063757272656e74206f776e656044820152603960f91b60648201526084016103d0565b336001600160a01b03821614806104a757506001600160a01b038116600090815260066020908152604080832033845290915290205460ff165b6105195760405162461bcd60e51b815260206004820152603860248201527f4552433732313a20617070726f76652063616c6c6572206973206e6f74206f7760448201527f6e6572206e6f7220617070726f76656420666f7220616c6c000000000000000060648201526084016103d0565b6105238383610b8f565b505050565b6105323382610bfd565b6105985760405162461bcd60e51b815260206004820152603160248201527f4552433732313a207472616e736665722063616c6c6572206973206e6f74206f6044820152701ddb995c881b9bdc88185c1c1c9bdd9959607a1b60648201526084016103d0565b610523838383610cf0565b61052383838360405180602001604052806000815250610740565b6000818152600360205260408120546001600160a01b0316806102c35760405162461bcd60e51b815260206004820152602960248201527f4552433732313a206f776e657220717565727920666f72206e6f6e657869737460448201526832b73a103a37b5b2b760b91b60648201526084016103d0565b60006001600160a01b0382166106a05760405162461bcd60e51b815260206004820152602a60248201527f4552433732313a2062616c616e636520717565727920666f7220746865207a65604482015269726f206164647265737360b01b60648201526084016103d0565b506001600160a01b031660009081526004602052604090205490565b6000546001600160a01b031633146107165760405162461bcd60e51b815260206004820181905260248201527f4f776e61626c653a2063616c6c6572206973206e6f7420746865206f776e657260448201526064016103d0565b6107206000610e90565b565b6060600280546102d890611811565b61073c338383610ee0565b5050565b61074a3383610bfd565b6107b05760405162461bcd60e51b815260206004820152603160248201527f4552433732313a207472616e736665722063616c6c6572206973206e6f74206f6044820152701ddb995c881b9bdc88185c1c1c9bdd9959607a1b60648201526084016103d0565b6107bc84848484610fae565b50505050565b6000818152600360205260409020546060906001600160a01b031661084f5760405162461bcd60e51b815260206004820152603160248201527f45524337323155524953746f726167653a2055524920717565727920666f722060448201527f6e6f6e6578697374656e7420746f6b656e00000000000000000000000000000060648201526084016103d0565b6000828152600760205260408120805461086890611811565b80601f016020809104026020016040519081016040528092919081815260200182805461089490611811565b80156108e15780601f106108b6576101008083540402835291602001916108e1565b820191906000526020600020905b8154815290600101906020018083116108c457829003601f168201915b5050505050905060006108ff60408051602081019091526000815290565b90508051600003610911575092915050565b81511561094357808260405160200161092b92919061184b565b60405160208183030381529060405292505050919050565b61094c84610fe1565b949350505050565b600a61096082826118c8565b5061096f600880546001019055565b600061097a60085490565b336000908152600960205260408120805492935060019290919061099f90849061199e565b909155506109af905033826110c9565b610a4381600a80546109c090611811565b80601f01602080910402602001604051908101604052809291908181526020018280546109ec90611811565b8015610a395780601f10610a0e57610100808354040283529160200191610a39565b820191906000526020600020905b815481529060010190602001808311610a1c57829003601f168201915b50505050506110e3565b604051819033907f4cc0a9c4a99ddc700de1af2c9f916a7cbfdb71f14801ccff94061ad1ef8a804090600090a35050565b6000546001600160a01b03163314610ace5760405162461bcd60e51b815260206004820181905260248201527f4f776e61626c653a2063616c6c6572206973206e6f7420746865206f776e657260448201526064016103d0565b6001600160a01b038116610b335760405162461bcd60e51b815260206004820152602660248201527f4f776e61626c653a206e6577206f776e657220697320746865207a65726f206160448201526564647265737360d01b60648201526084016103d0565b610b3c81610e90565b50565b60006001600160e01b031982166380ac58cd60e01b1480610b7057506001600160e01b03198216635b5e139f60e01b145b806102c357506301ffc9a760e01b6001600160e01b03198316146102c3565b600081815260056020526040902080546001600160a01b0319166001600160a01b0384169081179091558190610bc4826105be565b6001600160a01b03167f8c5be1e5ebec7d5bd14f71427d1e84f3dd0314c0f7b2291e5b200ac8c7c3b92560405160405180910390a45050565b6000818152600360205260408120546001600160a01b0316610c765760405162461bcd60e51b815260206004820152602c60248201527f4552433732313a206f70657261746f7220717565727920666f72206e6f6e657860448201526b34b9ba32b73a103a37b5b2b760a11b60648201526084016103d0565b6000610c81836105be565b9050806001600160a01b0316846001600160a01b03161480610cbc5750836001600160a01b0316610cb18461035b565b6001600160a01b0316145b8061094c57506001600160a01b0380821660009081526006602090815260408083209388168352929052205460ff1661094c565b826001600160a01b0316610d03826105be565b6001600160a01b031614610d6b5760405162461bcd60e51b815260206004820152602960248201527f4552433732313a207472616e73666572206f6620746f6b656e2074686174206960448201526839903737ba1037bbb760b91b60648201526084016103d0565b6001600160a01b038216610dcd5760405162461bcd60e51b8152602060048201526024808201527f4552433732313a207472616e7366657220746f20746865207a65726f206164646044820152637265737360e01b60648201526084016103d0565b610dd8600082610b8f565b6001600160a01b0383166000908152600460205260408120805460019290610e019084906119b1565b90915550506001600160a01b0382166000908152600460205260408120805460019290610e2f90849061199e565b909155505060008181526003602052604080822080546001600160a01b0319166001600160a01b0386811691821790925591518493918716917fddf252ad1be2c89b69c2b068fc378daa952ba7f163c4a11628f55a4df523b3ef91a4505050565b600080546001600160a01b038381166001600160a01b0319831681178455604051919092169283917f8be0079c531659141344cd1fd0a4f28419497f9722a3daafe3b4186f6b6457e09190a35050565b816001600160a01b0316836001600160a01b031603610f415760405162461bcd60e51b815260206004820152601960248201527f4552433732313a20617070726f766520746f2063616c6c65720000000000000060448201526064016103d0565b6001600160a01b03838116600081815260066020908152604080832094871680845294825291829020805460ff191686151590811790915591519182527f17307eab39ab6107e8899845ad3d59bd9653f200f220920489ca2b5937696c31910160405180910390a3505050565b610fb9848484610cf0565b610fc584848484611176565b6107bc5760405162461bcd60e51b81526004016103d0906119c4565b6000818152600360205260409020546060906001600160a01b03166110605760405162461bcd60e51b815260206004820152602f60248201527f4552433732314d657461646174613a2055524920717565727920666f72206e6f60448201526e3732bc34b9ba32b73a103a37b5b2b760891b60648201526084016103d0565b600061107760408051602081019091526000815290565b9050600081511161109757604051806020016040528060008152506110c2565b806110a184611277565b6040516020016110b292919061184b565b6040516020818303038152906040525b9392505050565b61073c828260405180602001604052806000815250611390565b6000828152600360205260409020546001600160a01b031661115e5760405162461bcd60e51b815260206004820152602e60248201527f45524337323155524953746f726167653a2055524920736574206f66206e6f6e60448201526d32bc34b9ba32b73a103a37b5b2b760911b60648201526084016103d0565b600082815260076020526040902061052382826118c8565b60006001600160a01b0384163b1561126c57604051630a85bd0160e11b81526001600160a01b0385169063150b7a02906111ba903390899088908890600401611a21565b6020604051808303816000875af19250505080156111f5575060408051601f3d908101601f191682019092526111f291810190611a5d565b60015b611252573d808015611223576040519150601f19603f3d011682016040523d82523d6000602084013e611228565b606091505b50805160000361124a5760405162461bcd60e51b81526004016103d0906119c4565b805181602001fd5b6001600160e01b031916630a85bd0160e11b14905061094c565b506001949350505050565b60608160000361129e5750506040805180820190915260018152600360fc1b602082015290565b8160005b81156112c857806112b281611a7a565b91506112c19050600a83611aa9565b91506112a2565b60008167ffffffffffffffff8111156112e3576112e361168d565b6040519080825280601f01601f19166020018201604052801561130d576020820181803683370190505b5090505b841561094c576113226001836119b1565b915061132f600a86611abd565b61133a90603061199e565b60f81b81838151811061134f5761134f611ad1565b60200101907effffffffffffffffffffffffffffffffffffffffffffffffffffffffffffff1916908160001a905350611389600a86611aa9565b9450611311565b61139a83836113c3565b6113a76000848484611176565b6105235760405162461bcd60e51b81526004016103d0906119c4565b6001600160a01b0382166114195760405162461bcd60e51b815260206004820181905260248201527f4552433732313a206d696e7420746f20746865207a65726f206164647265737360448201526064016103d0565b6000818152600360205260409020546001600160a01b03161561147e5760405162461bcd60e51b815260206004820152601c60248201527f4552433732313a20746f6b656e20616c7265616479206d696e7465640000000060448201526064016103d0565b6001600160a01b03821660009081526004602052604081208054600192906114a790849061199e565b909155505060008181526003602052604080822080546001600160a01b0319166001600160a01b03861690811790915590518392907fddf252ad1be2c89b69c2b068fc378daa952ba7f163c4a11628f55a4df523b3ef908290a45050565b6001600160e01b031981168114610b3c57600080fd5b60006020828403121561152d57600080fd5b81356110c281611505565b60005b8381101561155357818101518382015260200161153b565b50506000910152565b60008151808452611574816020860160208601611538565b601f01601f19169290920160200192915050565b6020815260006110c2602083018461155c565b6000602082840312156115ad57600080fd5b5035919050565b80356001600160a01b03811681146115cb57600080fd5b919050565b600080604083850312156115e357600080fd5b6115ec836115b4565b946020939093013593505050565b60008060006060848603121561160f57600080fd5b611618846115b4565b9250611626602085016115b4565b9150604084013590509250925092565b60006020828403121561164857600080fd5b6110c2826115b4565b6000806040838503121561166457600080fd5b61166d836115b4565b91506020830135801515811461168257600080fd5b809150509250929050565b634e487b7160e01b600052604160045260246000fd5b600067ffffffffffffffff808411156116be576116be61168d565b604051601f8501601f19908116603f011681019082821181831017156116e6576116e661168d565b816040528093508581528686860111156116ff57600080fd5b858560208301376000602087830101525050509392505050565b6000806000806080858703121561172f57600080fd5b611738856115b4565b9350611746602086016115b4565b925060408501359150606085013567ffffffffffffffff81111561176957600080fd5b8501601f8101871361177a57600080fd5b611789878235602084016116a3565b91505092959194509250565b6000602082840312156117a757600080fd5b813567ffffffffffffffff8111156117be57600080fd5b8201601f810184136117cf57600080fd5b61094c848235602084016116a3565b600080604083850312156117f157600080fd5b6117fa836115b4565b9150611808602084016115b4565b90509250929050565b600181811c9082168061182557607f821691505b60208210810361184557634e487b7160e01b600052602260045260246000fd5b50919050565b6000835161185d818460208801611538565b835190830190611871818360208801611538565b01949350505050565b601f82111561052357600081815260208120601f850160051c810160208610156118a15750805b601f850160051c820191505b818110156118c0578281556001016118ad565b505050505050565b815167ffffffffffffffff8111156118e2576118e261168d565b6118f6816118f08454611811565b8461187a565b602080601f83116001811461192b57600084156119135750858301515b600019600386901b1c1916600185901b1785556118c0565b600085815260208120601f198616915b8281101561195a5788860151825594840194600190910190840161193b565b50858210156119785787850151600019600388901b60f8161c191681555b5050505050600190811b01905550565b634e487b7160e01b600052601160045260246000fd5b808201808211156102c3576102c3611988565b818103818111156102c3576102c3611988565b60208082526032908201527f4552433732313a207472616e7366657220746f206e6f6e20455243373231526560408201527f63656976657220696d706c656d656e7465720000000000000000000000000000606082015260800190565b60006001600160a01b03808716835280861660208401525083604083015260806060830152611a53608083018461155c565b9695505050505050565b600060208284031215611a6f57600080fd5b81516110c281611505565b600060018201611a8c57611a8c611988565b5060010190565b634e487b7160e01b600052601260045260246000fd5b600082611ab857611ab8611a93565b500490565b600082611acc57611acc611a93565b500690565b634e487b7160e01b600052603260045260246000fdfea2646970667358221220ebddfceca8170e6beab4509d05742e425edcf1a1b870076e5b8770fc6d71a08264736f6c6343000815003368747470733a2f2f676174657761792e70696e6174612e636c6f75642f697066732f516d55446e426d45396e555a415650704139356e767758637a54376854766d6444324169776251756d53596a7742",
  "devdoc": {
    "events": {
      "Approval(address,address,uint256)": {
        "details": "Emitted when `owner` enables `approved` to manage the `tokenId` token."
      },
      "ApprovalForAll(address,address,bool)": {
        "details": "Emitted when `owner` enables or disables (`approved`) `operator` to manage all of its assets."
      },
      "Transfer(address,address,uint256)": {
        "details": "Emitted when `tokenId` token is transferred from `from` to `to`."
      }
    },
    "kind": "dev",
    "methods": {
      "approve(address,uint256)": {
        "details": "See {IERC721-approve}."
      },
      "balanceOf(address)": {
        "details": "See {IERC721-balanceOf}."
      },
      "getApproved(uint256)": {
        "details": "See {IERC721-getApproved}."
      },
      "isApprovedForAll(address,address)": {
        "details": "See {IERC721-isApprovedForAll}."
      },
      "name()": {
        "details": "See {IERC721Metadata-name}."
      },
      "owner()": {
        "details": "Returns the address of the current owner."
      },
      "ownerOf(uint256)": {
        "details": "See {IERC721-ownerOf}."
      },
      "renounceOwnership()": {
        "details": "Leaves the contract without owner. It will not be possible to call `onlyOwner` functions anymore. Can only be called by the current owner. NOTE: Renouncing ownership will leave the contract without an owner, thereby removing any functionality that is only available to the owner."
      },
      "safeTransferFrom(address,address,uint256)": {
        "details": "See {IERC721-safeTransferFrom}."
      },
      "safeTransferFrom(address,address,uint256,bytes)": {
        "details": "See {IERC721-safeTransferFrom}."
      },
      "setApprovalForAll(address,bool)": {
        "details": "See {IERC721-setApprovalForAll}."
      },
      "supportsInterface(bytes4)": {
        "details": "See {IERC165-supportsInterface}."
      },
      "symbol()": {
        "details": "See {IERC721Metadata-symbol}."
      },
      "tokenURI(uint256)": {
        "details": "See {IERC721Metadata-tokenURI}."
      },
      "transferFrom(address,address,uint256)": {
        "details": "See {IERC721-transferFrom}."
      },
      "transferOwnership(address)": {
        "details": "Transfers ownership of the contract to a new account (`newOwner`). Can only be called by the current owner."
      }
    },
    "version": 1
  },
  "userdoc": {
    "kind": "user",
    "methods": {},
    "version": 1
  },
  "storageLayout": {
    "storage": [
      {
        "astId": 7,
        "contract": "contracts/BlendNft.sol:BlendNft",
        "label": "_owner",
        "offset": 0,
        "slot": "0",
        "type": "t_address"
      },
      {
        "astId": 130,
        "contract": "contracts/BlendNft.sol:BlendNft",
        "label": "_name",
        "offset": 0,
        "slot": "1",
        "type": "t_string_storage"
      },
      {
        "astId": 132,
        "contract": "contracts/BlendNft.sol:BlendNft",
        "label": "_symbol",
        "offset": 0,
        "slot": "2",
        "type": "t_string_storage"
      },
      {
        "astId": 136,
        "contract": "contracts/BlendNft.sol:BlendNft",
        "label": "_owners",
        "offset": 0,
        "slot": "3",
        "type": "t_mapping(t_uint256,t_address)"
      },
      {
        "astId": 140,
        "contract": "contracts/BlendNft.sol:BlendNft",
        "label": "_balances",
        "offset": 0,
        "slot": "4",
        "type": "t_mapping(t_address,t_uint256)"
      },
      {
        "astId": 144,
        "contract": "contracts/BlendNft.sol:BlendNft",
        "label": "_tokenApprovals",
        "offset": 0,
        "slot": "5",
        "type": "t_mapping(t_uint256,t_address)"
      },
      {
        "astId": 150,
        "contract": "contracts/BlendNft.sol:BlendNft",
        "label": "_operatorApprovals",
        "offset": 0,
        "slot": "6",
        "type": "t_mapping(t_address,t_mapping(t_address,t_bool))"
      },
      {
        "astId": 1420,
        "contract": "contracts/BlendNft.sol:BlendNft",
        "label": "_tokenURIs",
        "offset": 0,
        "slot": "7",
        "type": "t_mapping(t_uint256,t_string_storage)"
      },
      {
        "astId": 3129,
        "contract": "contracts/BlendNft.sol:BlendNft",
        "label": "_tokenIds",
        "offset": 0,
        "slot": "8",
        "type": "t_struct(Counter)1918_storage"
      },
      {
        "astId": 3139,
        "contract": "contracts/BlendNft.sol:BlendNft",
        "label": "_mintCount",
        "offset": 0,
        "slot": "9",
        "type": "t_mapping(t_address,t_uint256)"
      },
      {
        "astId": 3142,
        "contract": "contracts/BlendNft.sol:BlendNft",
        "label": "_uri",
        "offset": 0,
        "slot": "10",
        "type": "t_string_storage"
      }
    ],
    "types": {
      "t_address": {
        "encoding": "inplace",
        "label": "address",
        "numberOfBytes": "20"
      },
      "t_bool": {
        "encoding": "inplace",
        "label": "bool",
        "numberOfBytes": "1"
      },
      "t_mapping(t_address,t_bool)": {
        "encoding": "mapping",
        "key": "t_address",
        "label": "mapping(address => bool)",
        "numberOfBytes": "32",
        "value": "t_bool"
      },
      "t_mapping(t_address,t_mapping(t_address,t_bool))": {
        "encoding": "mapping",
        "key": "t_address",
        "label": "mapping(address => mapping(address => bool))",
        "numberOfBytes": "32",
        "value": "t_mapping(t_address,t_bool)"
      },
      "t_mapping(t_address,t_uint256)": {
        "encoding": "mapping",
        "key": "t_address",
        "label": "mapping(address => uint256)",
        "numberOfBytes": "32",
        "value": "t_uint256"
      },
      "t_mapping(t_uint256,t_address)": {
        "encoding": "mapping",
        "key": "t_uint256",
        "label": "mapping(uint256 => address)",
        "numberOfBytes": "32",
        "value": "t_address"
      },
      "t_mapping(t_uint256,t_string_storage)": {
        "encoding": "mapping",
        "key": "t_uint256",
        "label": "mapping(uint256 => string)",
        "numberOfBytes": "32",
        "value": "t_string_storage"
      },
      "t_string_storage": {
        "encoding": "bytes",
        "label": "string",
        "numberOfBytes": "32"
      },
      "t_struct(Counter)1918_storage": {
        "encoding": "inplace",
        "label": "struct Counters.Counter",
        "members": [
          {
            "astId": 1917,
            "contract": "contracts/BlendNft.sol:BlendNft",
            "label": "_value",
            "offset": 0,
            "slot": "0",
            "type": "t_uint256"
          }
        ],
        "numberOfBytes": "32"
      },
      "t_uint256": {
        "encoding": "inplace",
        "label": "uint256",
        "numberOfBytes": "32"
      }
    }
  }
}