{
  "address": "0xA5F1e012619D08a698dc37f6e34AbA254A846DcF",
  "abi": [
    {
      "inputs": [],
      "name": "ERC721AddressZeroIsNotaValidOwner",
      "type": "error"
    },
    {
      "inputs": [],
      "name": "ERC721ApprovalToCurrentOwner",
      "type": "error"
    },
    {
      "inputs": [],
      "name": "ERC721ApproveCallerIsNotOwnerNorApprovedForAll",
      "type": "error"
    },
    {
      "inputs": [],
      "name": "ERC721ApproveToCaller",
      "type": "error"
    },
    {
      "inputs": [],
      "name": "ERC721InvalidTokenId",
      "type": "error"
    },
    {
      "inputs": [],
      "name": "ERC721MintToTheZeroAddress",
      "type": "error"
    },
    {
      "inputs": [],
      "name": "ERC721NotApprovedOrOwner",
      "type": "error"
    },
    {
      "inputs": [],
      "name": "ERC721TokenAlreadyMinted",
      "type": "error"
    },
    {
      "inputs": [],
      "name": "ERC721TransferFromIncorrectOwner",
      "type": "error"
    },
    {
      "inputs": [],
      "name": "ERC721TransferToNonReceiverImplementer",
      "type": "error"
    },
    {
      "inputs": [],
      "name": "ERC721TransferToTheZeroAddress",
      "type": "error"
    },
    {
      "inputs": [],
      "name": "IndexOutOfBounds",
      "type": "error"
    },
    {
      "inputs": [],
      "name": "RMRKApprovalForAssetsToCurrentOwner",
      "type": "error"
    },
    {
      "inputs": [],
      "name": "RMRKApproveForAssetsCallerIsNotOwnerNorApprovedForAll",
      "type": "error"
    },
    {
      "inputs": [],
      "name": "RMRKAssetAlreadyExists",
      "type": "error"
    },
    {
      "inputs": [],
      "name": "RMRKBadConfig",
      "type": "error"
    },
    {
      "inputs": [],
      "name": "RMRKBadPriorityListLength",
      "type": "error"
    },
    {
      "inputs": [],
      "name": "RMRKCannotTransferSoulbound",
      "type": "error"
    },
    {
      "inputs": [],
      "name": "RMRKCatalogRequiredForParts",
      "type": "error"
    },
    {
      "inputs": [],
      "name": "RMRKChildAlreadyExists",
      "type": "error"
    },
    {
      "inputs": [],
      "name": "RMRKChildIndexOutOfRange",
      "type": "error"
    },
    {
      "inputs": [],
      "name": "RMRKEquippableEquipNotAllowedByCatalog",
      "type": "error"
    },
    {
      "inputs": [],
      "name": "RMRKIdZeroForbidden",
      "type": "error"
    },
    {
      "inputs": [],
      "name": "RMRKIndexOutOfRange",
      "type": "error"
    },
    {
      "inputs": [],
      "name": "RMRKIsNotContract",
      "type": "error"
    },
    {
      "inputs": [],
      "name": "RMRKMaxPendingAssetsReached",
      "type": "error"
    },
    {
      "inputs": [],
      "name": "RMRKMaxPendingChildrenReached",
      "type": "error"
    },
    {
      "inputs": [
        {
          "internalType": "address",
          "name": "childContract",
          "type": "address"
        },
        {
          "internalType": "uint256",
          "name": "childId",
          "type": "uint256"
        }
      ],
      "name": "RMRKMaxRecursiveBurnsReached",
      "type": "error"
    },
    {
      "inputs": [],
      "name": "RMRKMustUnequipFirst",
      "type": "error"
    },
    {
      "inputs": [],
      "name": "RMRKNestableTooDeep",
      "type": "error"
    },
    {
      "inputs": [],
      "name": "RMRKNestableTransferToDescendant",
      "type": "error"
    },
    {
      "inputs": [],
      "name": "RMRKNestableTransferToNonRMRKNestableImplementer",
      "type": "error"
    },
    {
      "inputs": [],
      "name": "RMRKNestableTransferToSelf",
      "type": "error"
    },
    {
      "inputs": [],
      "name": "RMRKNoAssetMatchingId",
      "type": "error"
    },
    {
      "inputs": [],
      "name": "RMRKNotApprovedForAssetsOrOwner",
      "type": "error"
    },
    {
      "inputs": [],
      "name": "RMRKNotApprovedOrDirectOwner",
      "type": "error"
    },
    {
      "inputs": [],
      "name": "RMRKNotEquipped",
      "type": "error"
    },
    {
      "inputs": [],
      "name": "RMRKPartAlreadyExists",
      "type": "error"
    },
    {
      "inputs": [],
      "name": "RMRKPartDoesNotExist",
      "type": "error"
    },
    {
      "inputs": [],
      "name": "RMRKPartIsNotSlot",
      "type": "error"
    },
    {
      "inputs": [],
      "name": "RMRKPendingChildIndexOutOfRange",
      "type": "error"
    },
    {
      "inputs": [],
      "name": "RMRKSlotAlreadyUsed",
      "type": "error"
    },
    {
      "inputs": [],
      "name": "RMRKTargetAssetCannotReceiveSlot",
      "type": "error"
    },
    {
      "inputs": [],
      "name": "RMRKTokenCannotBeEquippedWithAssetIntoSlot",
      "type": "error"
    },
    {
      "inputs": [],
      "name": "RMRKTokenDoesNotHaveAsset",
      "type": "error"
    },
    {
      "inputs": [],
      "name": "RMRKUnexpectedAssetId",
      "type": "error"
    },
    {
      "inputs": [],
      "name": "RMRKUnexpectedChildId",
      "type": "error"
    },
    {
      "inputs": [],
      "name": "RMRKUnexpectedNumberOfAssets",
      "type": "error"
    },
    {
      "inputs": [],
      "name": "RMRKUnexpectedNumberOfChildren",
      "type": "error"
    },
    {
      "inputs": [],
      "name": "RentrantCall",
      "type": "error"
    },
    {
      "anonymous": false,
      "inputs": [
        {
          "indexed": true,
          "internalType": "uint64",
          "name": "partId",
          "type": "uint64"
        },
        {
          "indexed": false,
          "internalType": "address[]",
          "name": "equippableAddresses",
          "type": "address[]"
        }
      ],
      "name": "AddedEquippables",
      "type": "event"
    },
    {
      "anonymous": false,
      "inputs": [
        {
          "indexed": true,
          "internalType": "uint64",
          "name": "partId",
          "type": "uint64"
        },
        {
          "indexed": true,
          "internalType": "enum IRMRKCatalog.ItemType",
          "name": "itemType",
          "type": "uint8"
        },
        {
          "indexed": false,
          "internalType": "uint8",
          "name": "zIndex",
          "type": "uint8"
        },
        {
          "indexed": false,
          "internalType": "address[]",
          "name": "equippableAddresses",
          "type": "address[]"
        },
        {
          "indexed": false,
          "internalType": "string",
          "name": "metadataURI",
          "type": "string"
        }
      ],
      "name": "AddedPart",
      "type": "event"
    },
    {
      "anonymous": false,
      "inputs": [
        {
          "indexed": true,
          "internalType": "uint256",
          "name": "tokenId",
          "type": "uint256"
        }
      ],
      "name": "AllChildrenRejected",
      "type": "event"
    },
    {
      "anonymous": false,
      "inputs": [
        {
          "indexed": true,
          "internalType": "address",
          "name": "owner",
          "type": "address"
        },
        {
          "indexed": true,
          "internalType": "address",
          "name": "approved",
          "type": "address"
        },
        {
          "indexed": true,
          "internalType": "uint256",
          "name": "tokenId",
          "type": "uint256"
        }
      ],
      "name": "Approval",
      "type": "event"
    },
    {
      "anonymous": false,
      "inputs": [
        {
          "indexed": true,
          "internalType": "address",
          "name": "owner",
          "type": "address"
        },
        {
          "indexed": true,
          "internalType": "address",
          "name": "operator",
          "type": "address"
        },
        {
          "indexed": false,
          "internalType": "bool",
          "name": "approved",
          "type": "bool"
        }
      ],
      "name": "ApprovalForAll",
      "type": "event"
    },
    {
      "anonymous": false,
      "inputs": [
        {
          "indexed": true,
          "internalType": "address",
          "name": "owner",
          "type": "address"
        },
        {
          "indexed": true,
          "internalType": "address",
          "name": "operator",
          "type": "address"
        },
        {
          "indexed": false,
          "internalType": "bool",
          "name": "approved",
          "type": "bool"
        }
      ],
      "name": "ApprovalForAllForAssets",
      "type": "event"
    },
    {
      "anonymous": false,
      "inputs": [
        {
          "indexed": true,
          "internalType": "address",
          "name": "owner",
          "type": "address"
        },
        {
          "indexed": true,
          "internalType": "address",
          "name": "approved",
          "type": "address"
        },
        {
          "indexed": true,
          "internalType": "uint256",
          "name": "tokenId",
          "type": "uint256"
        }
      ],
      "name": "ApprovalForAssets",
      "type": "event"
    },
    {
      "anonymous": false,
      "inputs": [
        {
          "indexed": true,
          "internalType": "uint256",
          "name": "tokenId",
          "type": "uint256"
        },
        {
          "indexed": true,
          "internalType": "uint64",
          "name": "assetId",
          "type": "uint64"
        },
        {
          "indexed": true,
          "internalType": "uint64",
          "name": "replacesId",
          "type": "uint64"
        }
      ],
      "name": "AssetAccepted",
      "type": "event"
    },
    {
      "anonymous": false,
      "inputs": [
        {
          "indexed": false,
          "internalType": "uint256[]",
          "name": "tokenIds",
          "type": "uint256[]"
        },
        {
          "indexed": true,
          "internalType": "uint64",
          "name": "assetId",
          "type": "uint64"
        },
        {
          "indexed": true,
          "internalType": "uint64",
          "name": "replacesId",
          "type": "uint64"
        }
      ],
      "name": "AssetAddedToTokens",
      "type": "event"
    },
    {
      "anonymous": false,
      "inputs": [
        {
          "indexed": true,
          "internalType": "uint256",
          "name": "tokenId",
          "type": "uint256"
        }
      ],
      "name": "AssetPrioritySet",
      "type": "event"
    },
    {
      "anonymous": false,
      "inputs": [
        {
          "indexed": true,
          "internalType": "uint256",
          "name": "tokenId",
          "type": "uint256"
        },
        {
          "indexed": true,
          "internalType": "uint64",
          "name": "assetId",
          "type": "uint64"
        }
      ],
      "name": "AssetRejected",
      "type": "event"
    },
    {
      "anonymous": false,
      "inputs": [
        {
          "indexed": true,
          "internalType": "uint64",
          "name": "assetId",
          "type": "uint64"
        }
      ],
      "name": "AssetSet",
      "type": "event"
    },
    {
      "anonymous": false,
      "inputs": [
        {
          "indexed": true,
          "internalType": "uint256",
          "name": "tokenId",
          "type": "uint256"
        },
        {
          "indexed": false,
          "internalType": "uint256",
          "name": "childIndex",
          "type": "uint256"
        },
        {
          "indexed": true,
          "internalType": "address",
          "name": "childAddress",
          "type": "address"
        },
        {
          "indexed": true,
          "internalType": "uint256",
          "name": "childId",
          "type": "uint256"
        }
      ],
      "name": "ChildAccepted",
      "type": "event"
    },
    {
      "anonymous": false,
      "inputs": [
        {
          "indexed": true,
          "internalType": "uint256",
          "name": "tokenId",
          "type": "uint256"
        },
        {
          "indexed": true,
          "internalType": "uint64",
          "name": "assetId",
          "type": "uint64"
        },
        {
          "indexed": true,
          "internalType": "uint64",
          "name": "slotPartId",
          "type": "uint64"
        },
        {
          "indexed": false,
          "internalType": "uint256",
          "name": "childId",
          "type": "uint256"
        },
        {
          "indexed": false,
          "internalType": "address",
          "name": "childAddress",
          "type": "address"
        },
        {
          "indexed": false,
          "internalType": "uint64",
          "name": "childAssetId",
          "type": "uint64"
        }
      ],
      "name": "ChildAssetEquipped",
      "type": "event"
    },
    {
      "anonymous": false,
      "inputs": [
        {
          "indexed": true,
          "internalType": "uint256",
          "name": "tokenId",
          "type": "uint256"
        },
        {
          "indexed": true,
          "internalType": "uint64",
          "name": "assetId",
          "type": "uint64"
        },
        {
          "indexed": true,
          "internalType": "uint64",
          "name": "slotPartId",
          "type": "uint64"
        },
        {
          "indexed": false,
          "internalType": "uint256",
          "name": "childId",
          "type": "uint256"
        },
        {
          "indexed": false,
          "internalType": "address",
          "name": "childAddress",
          "type": "address"
        },
        {
          "indexed": false,
          "internalType": "uint64",
          "name": "childAssetId",
          "type": "uint64"
        }
      ],
      "name": "ChildAssetUnequipped",
      "type": "event"
    },
    {
      "anonymous": false,
      "inputs": [
        {
          "indexed": true,
          "internalType": "uint256",
          "name": "tokenId",
          "type": "uint256"
        },
        {
          "indexed": false,
          "internalType": "uint256",
          "name": "childIndex",
          "type": "uint256"
        },
        {
          "indexed": true,
          "internalType": "address",
          "name": "childAddress",
          "type": "address"
        },
        {
          "indexed": true,
          "internalType": "uint256",
          "name": "childId",
          "type": "uint256"
        }
      ],
      "name": "ChildProposed",
      "type": "event"
    },
    {
      "anonymous": false,
      "inputs": [
        {
          "indexed": true,
          "internalType": "uint256",
          "name": "tokenId",
          "type": "uint256"
        },
        {
          "indexed": false,
          "internalType": "uint256",
          "name": "childIndex",
          "type": "uint256"
        },
        {
          "indexed": true,
          "internalType": "address",
          "name": "childAddress",
          "type": "address"
        },
        {
          "indexed": true,
          "internalType": "uint256",
          "name": "childId",
          "type": "uint256"
        },
        {
          "indexed": false,
          "internalType": "bool",
          "name": "fromPending",
          "type": "bool"
        },
        {
          "indexed": false,
          "internalType": "bool",
          "name": "toZero",
          "type": "bool"
        }
      ],
      "name": "ChildTransferred",
      "type": "event"
    },
    {
      "anonymous": false,
      "inputs": [
        {
          "indexed": true,
          "internalType": "address",
          "name": "from",
          "type": "address"
        },
        {
          "indexed": true,
          "internalType": "address",
          "name": "to",
          "type": "address"
        },
        {
          "indexed": false,
          "internalType": "uint256",
          "name": "fromTokenId",
          "type": "uint256"
        },
        {
          "indexed": false,
          "internalType": "uint256",
          "name": "toTokenId",
          "type": "uint256"
        },
        {
          "indexed": true,
          "internalType": "uint256",
          "name": "tokenId",
          "type": "uint256"
        }
      ],
      "name": "NestTransfer",
      "type": "event"
    },
    {
      "anonymous": false,
      "inputs": [
        {
          "indexed": true,
          "internalType": "uint64",
          "name": "partId",
          "type": "uint64"
        }
      ],
      "name": "SetEquippableToAll",
      "type": "event"
    },
    {
      "anonymous": false,
      "inputs": [
        {
          "indexed": true,
          "internalType": "uint64",
          "name": "partId",
          "type": "uint64"
        },
        {
          "indexed": false,
          "internalType": "address[]",
          "name": "equippableAddresses",
          "type": "address[]"
        }
      ],
      "name": "SetEquippables",
      "type": "event"
    },
    {
      "anonymous": false,
      "inputs": [
        {
          "indexed": true,
          "internalType": "uint256",
          "name": "tokenId",
          "type": "uint256"
        },
        {
          "indexed": false,
          "internalType": "bool",
          "name": "state",
          "type": "bool"
        }
      ],
      "name": "Soulbound",
      "type": "event"
    },
    {
      "anonymous": false,
      "inputs": [
        {
          "indexed": true,
          "internalType": "address",
          "name": "from",
          "type": "address"
        },
        {
          "indexed": true,
          "internalType": "address",
          "name": "to",
          "type": "address"
        },
        {
          "indexed": true,
          "internalType": "uint256",
          "name": "tokenId",
          "type": "uint256"
        }
      ],
      "name": "Transfer",
      "type": "event"
    },
    {
      "anonymous": false,
      "inputs": [
        {
          "indexed": true,
          "internalType": "uint64",
          "name": "equippableGroupId",
          "type": "uint64"
        },
        {
          "indexed": true,
          "internalType": "uint64",
          "name": "slotPartId",
          "type": "uint64"
        },
        {
          "indexed": false,
          "internalType": "address",
          "name": "parentAddress",
          "type": "address"
        }
      ],
      "name": "ValidParentEquippableGroupIdSet",
      "type": "event"
    },
    {
      "inputs": [],
      "name": "RMRK_INTERFACE",
      "outputs": [
        {
          "internalType": "bytes4",
          "name": "rmrkInterface",
          "type": "bytes4"
        }
      ],
      "stateMutability": "pure",
      "type": "function"
    },
    {
      "inputs": [],
      "name": "VERSION",
      "outputs": [
        {
          "internalType": "string",
          "name": "version",
          "type": "string"
        }
      ],
      "stateMutability": "pure",
      "type": "function"
    },
    {
      "inputs": [
        {
          "internalType": "uint256",
          "name": "tokenId",
          "type": "uint256"
        },
        {
          "internalType": "uint256",
          "name": "index",
          "type": "uint256"
        },
        {
          "internalType": "uint64",
          "name": "assetId",
          "type": "uint64"
        }
      ],
      "name": "acceptAsset",
      "outputs": [],
      "stateMutability": "nonpayable",
      "type": "function"
    },
    {
      "inputs": [
        {
          "internalType": "uint256",
          "name": "parentId",
          "type": "uint256"
        },
        {
          "internalType": "uint256",
          "name": "childIndex",
          "type": "uint256"
        },
        {
          "internalType": "address",
          "name": "childAddress",
          "type": "address"
        },
        {
          "internalType": "uint256",
          "name": "childId",
          "type": "uint256"
        }
      ],
      "name": "acceptChild",
      "outputs": [],
      "stateMutability": "nonpayable",
      "type": "function"
    },
    {
      "inputs": [
        {
          "internalType": "uint256",
          "name": "parentId",
          "type": "uint256"
        },
        {
          "internalType": "uint256",
          "name": "childId",
          "type": "uint256"
        },
        {
          "internalType": "bytes",
          "name": "data",
          "type": "bytes"
        }
      ],
      "name": "addChild",
      "outputs": [],
      "stateMutability": "nonpayable",
      "type": "function"
    },
    {
      "inputs": [
        {
          "internalType": "address[]",
          "name": "equippables",
          "type": "address[]"
        },
        {
          "internalType": "string",
          "name": "metadataURI",
          "type": "string"
        },
        {
          "internalType": "uint64",
          "name": "_partId",
          "type": "uint64"
        }
      ],
      "name": "addPart",
      "outputs": [],
      "stateMutability": "nonpayable",
      "type": "function"
    },
    {
      "inputs": [
        {
          "internalType": "address",
          "name": "to",
          "type": "address"
        },
        {
          "internalType": "uint256",
          "name": "tokenId",
          "type": "uint256"
        }
      ],
      "name": "approve",
      "outputs": [],
      "stateMutability": "nonpayable",
      "type": "function"
    },
    {
      "inputs": [
        {
          "internalType": "address",
          "name": "to",
          "type": "address"
        },
        {
          "internalType": "uint256",
          "name": "tokenId",
          "type": "uint256"
        }
      ],
      "name": "approveForAssets",
      "outputs": [],
      "stateMutability": "nonpayable",
      "type": "function"
    },
    {
      "inputs": [
        {
          "internalType": "address",
          "name": "owner",
          "type": "address"
        }
      ],
      "name": "balanceOf",
      "outputs": [
        {
          "internalType": "uint256",
          "name": "balance",
          "type": "uint256"
        }
      ],
      "stateMutability": "view",
      "type": "function"
    },
    {
      "inputs": [
        {
          "internalType": "uint256",
          "name": "tokenId",
          "type": "uint256"
        }
      ],
      "name": "burn",
      "outputs": [],
      "stateMutability": "nonpayable",
      "type": "function"
    },
    {
      "inputs": [
        {
          "internalType": "uint256",
          "name": "tokenId",
          "type": "uint256"
        },
        {
          "internalType": "uint256",
          "name": "maxChildrenBurns",
          "type": "uint256"
        }
      ],
      "name": "burn",
      "outputs": [
        {
          "internalType": "uint256",
          "name": "burnedChildren",
          "type": "uint256"
        }
      ],
      "stateMutability": "nonpayable",
      "type": "function"
    },
    {
      "inputs": [
        {
          "internalType": "address",
          "name": "parent",
          "type": "address"
        },
        {
          "internalType": "uint256",
          "name": "tokenId",
          "type": "uint256"
        },
        {
          "internalType": "uint64",
          "name": "assetId",
          "type": "uint64"
        },
        {
          "internalType": "uint64",
          "name": "slotId",
          "type": "uint64"
        }
      ],
      "name": "canTokenBeEquippedWithAssetIntoSlot",
      "outputs": [
        {
          "internalType": "bool",
          "name": "canBeEquipped",
          "type": "bool"
        }
      ],
      "stateMutability": "view",
      "type": "function"
    },
    {
      "inputs": [
        {
          "internalType": "uint64",
          "name": "partId",
          "type": "uint64"
        },
        {
          "internalType": "address",
          "name": "targetAddress",
          "type": "address"
        }
      ],
      "name": "checkIsEquippable",
      "outputs": [
        {
          "internalType": "bool",
          "name": "isEquippable",
          "type": "bool"
        }
      ],
      "stateMutability": "view",
      "type": "function"
    },
    {
      "inputs": [
        {
          "internalType": "uint64",
          "name": "partId",
          "type": "uint64"
        }
      ],
      "name": "checkIsEquippableToAll",
      "outputs": [
        {
          "internalType": "bool",
          "name": "isEquippable",
          "type": "bool"
        }
      ],
      "stateMutability": "view",
      "type": "function"
    },
    {
      "inputs": [
        {
          "internalType": "uint256",
          "name": "parentId",
          "type": "uint256"
        },
        {
          "internalType": "uint256",
          "name": "index",
          "type": "uint256"
        }
      ],
      "name": "childOf",
      "outputs": [
        {
          "components": [
            {
              "internalType": "uint256",
              "name": "tokenId",
              "type": "uint256"
            },
            {
              "internalType": "address",
              "name": "contractAddress",
              "type": "address"
            }
          ],
          "internalType": "struct IERC7401.Child",
          "name": "child",
          "type": "tuple"
        }
      ],
      "stateMutability": "view",
      "type": "function"
    },
    {
      "inputs": [
        {
          "internalType": "uint256",
          "name": "parentId",
          "type": "uint256"
        }
      ],
      "name": "childrenOf",
      "outputs": [
        {
          "components": [
            {
              "internalType": "uint256",
              "name": "tokenId",
              "type": "uint256"
            },
            {
              "internalType": "address",
              "name": "contractAddress",
              "type": "address"
            }
          ],
          "internalType": "struct IERC7401.Child[]",
          "name": "children",
          "type": "tuple[]"
        }
      ],
      "stateMutability": "view",
      "type": "function"
    },
    {
      "inputs": [
        {
          "internalType": "uint256",
          "name": "tokenId",
          "type": "uint256"
        }
      ],
      "name": "directOwnerOf",
      "outputs": [
        {
          "internalType": "address",
          "name": "owner_",
          "type": "address"
        },
        {
          "internalType": "uint256",
          "name": "parentId",
          "type": "uint256"
        },
        {
          "internalType": "bool",
          "name": "isNFT",
          "type": "bool"
        }
      ],
      "stateMutability": "view",
      "type": "function"
    },
    {
      "inputs": [
        {
          "components": [
            {
              "internalType": "uint256",
              "name": "tokenId",
              "type": "uint256"
            },
            {
              "internalType": "uint256",
              "name": "childIndex",
              "type": "uint256"
            },
            {
              "internalType": "uint64",
              "name": "assetId",
              "type": "uint64"
            },
            {
              "internalType": "uint64",
              "name": "slotPartId",
              "type": "uint64"
            },
            {
              "internalType": "uint64",
              "name": "childAssetId",
              "type": "uint64"
            }
          ],
          "internalType": "struct IERC6220.IntakeEquip",
          "name": "data",
          "type": "tuple"
        }
      ],
      "name": "equip",
      "outputs": [],
      "stateMutability": "nonpayable",
      "type": "function"
    },
    {
      "inputs": [
        {
          "internalType": "uint64",
          "name": "equippableGroupId",
          "type": "uint64"
        },
        {
          "internalType": "address",
          "name": "parentAddress",
          "type": "address"
        },
        {
          "internalType": "uint64",
          "name": "slotPartId",
          "type": "uint64"
        },
        {
          "components": [
            {
              "internalType": "uint256",
              "name": "tokenId",
              "type": "uint256"
            },
            {
              "internalType": "uint256",
              "name": "childIndex",
              "type": "uint256"
            },
            {
              "internalType": "uint64",
              "name": "assetId",
              "type": "uint64"
            },
            {
              "internalType": "uint64",
              "name": "slotPartId",
              "type": "uint64"
            },
            {
              "internalType": "uint64",
              "name": "childAssetId",
              "type": "uint64"
            }
          ],
          "internalType": "struct IERC6220.IntakeEquip",
          "name": "data",
          "type": "tuple"
        }
      ],
      "name": "equipToken",
      "outputs": [],
      "stateMutability": "nonpayable",
      "type": "function"
    },
    {
      "inputs": [
        {
          "internalType": "uint256",
          "name": "tokenId",
          "type": "uint256"
        }
      ],
      "name": "getActiveAssetPriorities",
      "outputs": [
        {
          "internalType": "uint64[]",
          "name": "priorities",
          "type": "uint64[]"
        }
      ],
      "stateMutability": "view",
      "type": "function"
    },
    {
      "inputs": [
        {
          "internalType": "uint256",
          "name": "tokenId",
          "type": "uint256"
        }
      ],
      "name": "getActiveAssets",
      "outputs": [
        {
          "internalType": "uint64[]",
          "name": "assetIds",
          "type": "uint64[]"
        }
      ],
      "stateMutability": "view",
      "type": "function"
    },
    {
      "inputs": [
        {
          "internalType": "uint256",
          "name": "tokenId",
          "type": "uint256"
        }
      ],
      "name": "getApproved",
      "outputs": [
        {
          "internalType": "address",
          "name": "approved",
          "type": "address"
        }
      ],
      "stateMutability": "view",
      "type": "function"
    },
    {
      "inputs": [
        {
          "internalType": "uint256",
          "name": "tokenId",
          "type": "uint256"
        }
      ],
      "name": "getApprovedForAssets",
      "outputs": [
        {
          "internalType": "address",
          "name": "approved",
          "type": "address"
        }
      ],
      "stateMutability": "view",
      "type": "function"
    },
    {
      "inputs": [
        {
          "internalType": "uint256",
          "name": "tokenId",
          "type": "uint256"
        },
        {
          "internalType": "uint64",
          "name": "assetId",
          "type": "uint64"
        }
      ],
      "name": "getAssetAndEquippableData",
      "outputs": [
        {
          "internalType": "string",
          "name": "metadataURI",
          "type": "string"
        },
        {
          "internalType": "uint64",
          "name": "equippableGroupId",
          "type": "uint64"
        },
        {
          "internalType": "address",
          "name": "catalogAddress",
          "type": "address"
        },
        {
          "internalType": "uint64[]",
          "name": "partIds",
          "type": "uint64[]"
        }
      ],
      "stateMutability": "view",
      "type": "function"
    },
    {
      "inputs": [
        {
          "internalType": "uint256",
          "name": "tokenId",
          "type": "uint256"
        },
        {
          "internalType": "uint64",
          "name": "assetId",
          "type": "uint64"
        }
      ],
      "name": "getAssetMetadata",
      "outputs": [
        {
          "internalType": "string",
          "name": "metadata",
          "type": "string"
        }
      ],
      "stateMutability": "view",
      "type": "function"
    },
    {
      "inputs": [
        {
          "internalType": "uint256",
          "name": "tokenId",
          "type": "uint256"
        },
        {
          "internalType": "uint64",
          "name": "newAssetId",
          "type": "uint64"
        }
      ],
      "name": "getAssetReplacements",
      "outputs": [
        {
          "internalType": "uint64",
          "name": "replacesAssetId",
          "type": "uint64"
        }
      ],
      "stateMutability": "view",
      "type": "function"
    },
    {
      "inputs": [
        {
          "internalType": "uint256",
          "name": "tokenId",
          "type": "uint256"
        },
        {
          "internalType": "address",
          "name": "targetCatalogAddress",
          "type": "address"
        },
        {
          "internalType": "uint64",
          "name": "slotPartId",
          "type": "uint64"
        }
      ],
      "name": "getEquipment",
      "outputs": [
        {
          "components": [
            {
              "internalType": "uint64",
              "name": "assetId",
              "type": "uint64"
            },
            {
              "internalType": "uint64",
              "name": "childAssetId",
              "type": "uint64"
            },
            {
              "internalType": "uint256",
              "name": "childId",
              "type": "uint256"
            },
            {
              "internalType": "address",
              "name": "childEquippableAddress",
              "type": "address"
            }
          ],
          "internalType": "struct IERC6220.Equipment",
          "name": "equipment",
          "type": "tuple"
        }
      ],
      "stateMutability": "view",
      "type": "function"
    },
    {
      "inputs": [],
      "name": "getMetadataURI",
      "outputs": [
        {
          "internalType": "string",
          "name": "",
          "type": "string"
        }
      ],
      "stateMutability": "view",
      "type": "function"
    },
    {
      "inputs": [],
      "name": "getParentTokens",
      "outputs": [
        {
          "internalType": "uint64[]",
          "name": "",
          "type": "uint64[]"
        }
      ],
      "stateMutability": "view",
      "type": "function"
    },
    {
      "inputs": [
        {
          "internalType": "uint64",
          "name": "partId",
          "type": "uint64"
        }
      ],
      "name": "getPart",
      "outputs": [
        {
          "components": [
            {
              "internalType": "enum IRMRKCatalog.ItemType",
              "name": "itemType",
              "type": "uint8"
            },
            {
              "internalType": "uint8",
              "name": "z",
              "type": "uint8"
            },
            {
              "internalType": "address[]",
              "name": "equippable",
              "type": "address[]"
            },
            {
              "internalType": "string",
              "name": "metadataURI",
              "type": "string"
            }
          ],
          "internalType": "struct IRMRKCatalog.Part",
          "name": "part",
          "type": "tuple"
        }
      ],
      "stateMutability": "view",
      "type": "function"
    },
    {
      "inputs": [
        {
          "internalType": "uint64[]",
          "name": "partIds",
          "type": "uint64[]"
        }
      ],
      "name": "getParts",
      "outputs": [
        {
          "components": [
            {
              "internalType": "enum IRMRKCatalog.ItemType",
              "name": "itemType",
              "type": "uint8"
            },
            {
              "internalType": "uint8",
              "name": "z",
              "type": "uint8"
            },
            {
              "internalType": "address[]",
              "name": "equippable",
              "type": "address[]"
            },
            {
              "internalType": "string",
              "name": "metadataURI",
              "type": "string"
            }
          ],
          "internalType": "struct IRMRKCatalog.Part[]",
          "name": "parts",
          "type": "tuple[]"
        }
      ],
      "stateMutability": "view",
      "type": "function"
    },
    {
      "inputs": [
        {
          "internalType": "uint256",
          "name": "tokenId",
          "type": "uint256"
        }
      ],
      "name": "getPendingAssets",
      "outputs": [
        {
          "internalType": "uint64[]",
          "name": "assetIds",
          "type": "uint64[]"
        }
      ],
      "stateMutability": "view",
      "type": "function"
    },
    {
      "inputs": [],
      "name": "getTokenId",
      "outputs": [
        {
          "internalType": "uint64",
          "name": "",
          "type": "uint64"
        }
      ],
      "stateMutability": "view",
      "type": "function"
    },
    {
      "inputs": [],
      "name": "getType",
      "outputs": [
        {
          "internalType": "string",
          "name": "",
          "type": "string"
        }
      ],
      "stateMutability": "view",
      "type": "function"
    },
    {
      "inputs": [
        {
          "internalType": "address",
          "name": "owner",
          "type": "address"
        },
        {
          "internalType": "address",
          "name": "operator",
          "type": "address"
        }
      ],
      "name": "isApprovedForAll",
      "outputs": [
        {
          "internalType": "bool",
          "name": "isApproved",
          "type": "bool"
        }
      ],
      "stateMutability": "view",
      "type": "function"
    },
    {
      "inputs": [
        {
          "internalType": "address",
          "name": "owner",
          "type": "address"
        },
        {
          "internalType": "address",
          "name": "operator",
          "type": "address"
        }
      ],
      "name": "isApprovedForAllForAssets",
      "outputs": [
        {
          "internalType": "bool",
          "name": "isApproved",
          "type": "bool"
        }
      ],
      "stateMutability": "view",
      "type": "function"
    },
    {
      "inputs": [
        {
          "internalType": "uint256",
          "name": "tokenId",
          "type": "uint256"
        },
        {
          "internalType": "address",
          "name": "childAddress",
          "type": "address"
        },
        {
          "internalType": "uint256",
          "name": "childId",
          "type": "uint256"
        }
      ],
      "name": "isChildEquipped",
      "outputs": [
        {
          "internalType": "bool",
          "name": "isEquipped",
          "type": "bool"
        }
      ],
      "stateMutability": "view",
      "type": "function"
    },
    {
      "inputs": [
        {
          "internalType": "uint256",
          "name": "tokenId",
          "type": "uint256"
        },
        {
          "internalType": "address",
          "name": "from",
          "type": "address"
        },
        {
          "internalType": "address",
          "name": "to",
          "type": "address"
        }
      ],
      "name": "isTransferable",
      "outputs": [
        {
          "internalType": "bool",
          "name": "isTransferable_",
          "type": "bool"
        }
      ],
      "stateMutability": "view",
      "type": "function"
    },
    {
      "inputs": [
        {
          "internalType": "string",
          "name": "metadataURI",
          "type": "string"
        },
        {
          "internalType": "address[]",
          "name": "equippables",
          "type": "address[]"
        }
      ],
      "name": "mint",
      "outputs": [],
      "stateMutability": "nonpayable",
      "type": "function"
    },
    {
      "inputs": [
        {
          "internalType": "uint64",
          "name": "token_id",
          "type": "uint64"
        },
        {
          "internalType": "string",
          "name": "metadataURI",
          "type": "string"
        }
      ],
      "name": "mintChild",
      "outputs": [],
      "stateMutability": "nonpayable",
      "type": "function"
    },
    {
      "inputs": [
        {
          "internalType": "address",
          "name": "from",
          "type": "address"
        },
        {
          "internalType": "address",
          "name": "to",
          "type": "address"
        },
        {
          "internalType": "uint256",
          "name": "tokenId",
          "type": "uint256"
        },
        {
          "internalType": "uint256",
          "name": "destinationId",
          "type": "uint256"
        },
        {
          "internalType": "bytes",
          "name": "data",
          "type": "bytes"
        }
      ],
      "name": "nestTransferFrom",
      "outputs": [],
      "stateMutability": "nonpayable",
      "type": "function"
    },
    {
      "inputs": [
        {
          "internalType": "uint256",
          "name": "tokenId",
          "type": "uint256"
        }
      ],
      "name": "ownerOf",
      "outputs": [
        {
          "internalType": "address",
          "name": "owner_",
          "type": "address"
        }
      ],
      "stateMutability": "view",
      "type": "function"
    },
    {
      "inputs": [
        {
          "internalType": "uint256",
          "name": "parentId",
          "type": "uint256"
        },
        {
          "internalType": "uint256",
          "name": "index",
          "type": "uint256"
        }
      ],
      "name": "pendingChildOf",
      "outputs": [
        {
          "components": [
            {
              "internalType": "uint256",
              "name": "tokenId",
              "type": "uint256"
            },
            {
              "internalType": "address",
              "name": "contractAddress",
              "type": "address"
            }
          ],
          "internalType": "struct IERC7401.Child",
          "name": "child",
          "type": "tuple"
        }
      ],
      "stateMutability": "view",
      "type": "function"
    },
    {
      "inputs": [
        {
          "internalType": "uint256",
          "name": "parentId",
          "type": "uint256"
        }
      ],
      "name": "pendingChildrenOf",
      "outputs": [
        {
          "components": [
            {
              "internalType": "uint256",
              "name": "tokenId",
              "type": "uint256"
            },
            {
              "internalType": "address",
              "name": "contractAddress",
              "type": "address"
            }
          ],
          "internalType": "struct IERC7401.Child[]",
          "name": "children",
          "type": "tuple[]"
        }
      ],
      "stateMutability": "view",
      "type": "function"
    },
    {
      "inputs": [
        {
          "internalType": "uint256",
          "name": "tokenId",
          "type": "uint256"
        },
        {
          "internalType": "uint256",
          "name": "maxRejections",
          "type": "uint256"
        }
      ],
      "name": "rejectAllAssets",
      "outputs": [],
      "stateMutability": "nonpayable",
      "type": "function"
    },
    {
      "inputs": [
        {
          "internalType": "uint256",
          "name": "tokenId",
          "type": "uint256"
        },
        {
          "internalType": "uint256",
          "name": "maxRejections",
          "type": "uint256"
        }
      ],
      "name": "rejectAllChildren",
      "outputs": [],
      "stateMutability": "nonpayable",
      "type": "function"
    },
    {
      "inputs": [
        {
          "internalType": "uint256",
          "name": "tokenId",
          "type": "uint256"
        },
        {
          "internalType": "uint256",
          "name": "index",
          "type": "uint256"
        },
        {
          "internalType": "uint64",
          "name": "assetId",
          "type": "uint64"
        }
      ],
      "name": "rejectAsset",
      "outputs": [],
      "stateMutability": "nonpayable",
      "type": "function"
    },
    {
      "inputs": [
        {
          "internalType": "address",
          "name": "from",
          "type": "address"
        },
        {
          "internalType": "address",
          "name": "to",
          "type": "address"
        },
        {
          "internalType": "uint256",
          "name": "tokenId",
          "type": "uint256"
        }
      ],
      "name": "safeTransferFrom",
      "outputs": [],
      "stateMutability": "nonpayable",
      "type": "function"
    },
    {
      "inputs": [
        {
          "internalType": "address",
          "name": "from",
          "type": "address"
        },
        {
          "internalType": "address",
          "name": "to",
          "type": "address"
        },
        {
          "internalType": "uint256",
          "name": "tokenId",
          "type": "uint256"
        },
        {
          "internalType": "bytes",
          "name": "data",
          "type": "bytes"
        }
      ],
      "name": "safeTransferFrom",
      "outputs": [],
      "stateMutability": "nonpayable",
      "type": "function"
    },
    {
      "inputs": [
        {
          "internalType": "address",
          "name": "operator",
          "type": "address"
        },
        {
          "internalType": "bool",
          "name": "approved",
          "type": "bool"
        }
      ],
      "name": "setApprovalForAll",
      "outputs": [],
      "stateMutability": "nonpayable",
      "type": "function"
    },
    {
      "inputs": [
        {
          "internalType": "address",
          "name": "operator",
          "type": "address"
        },
        {
          "internalType": "bool",
          "name": "approved",
          "type": "bool"
        }
      ],
      "name": "setApprovalForAllForAssets",
      "outputs": [],
      "stateMutability": "nonpayable",
      "type": "function"
    },
    {
      "inputs": [
        {
          "internalType": "uint256",
          "name": "tokenId",
          "type": "uint256"
        },
        {
          "internalType": "uint64[]",
          "name": "priorities",
          "type": "uint64[]"
        }
      ],
      "name": "setPriority",
      "outputs": [],
      "stateMutability": "nonpayable",
      "type": "function"
    },
    {
      "inputs": [
        {
          "internalType": "uint64",
          "name": "equippableGroupId",
          "type": "uint64"
        },
        {
          "internalType": "address",
          "name": "parentAddress",
          "type": "address"
        },
        {
          "internalType": "uint64",
          "name": "slotPartId",
          "type": "uint64"
        }
      ],
      "name": "setValidParentForEquippableGroup",
      "outputs": [],
      "stateMutability": "nonpayable",
      "type": "function"
    },
    {
      "inputs": [
        {
          "internalType": "bytes4",
          "name": "interfaceId",
          "type": "bytes4"
        }
      ],
      "name": "supportsInterface",
      "outputs": [
        {
          "internalType": "bool",
          "name": "",
          "type": "bool"
        }
      ],
      "stateMutability": "view",
      "type": "function"
    },
    {
      "inputs": [
        {
          "internalType": "uint256",
          "name": "tokenId",
          "type": "uint256"
        },
        {
          "internalType": "address",
          "name": "to",
          "type": "address"
        },
        {
          "internalType": "uint256",
          "name": "destinationId",
          "type": "uint256"
        },
        {
          "internalType": "uint256",
          "name": "childIndex",
          "type": "uint256"
        },
        {
          "internalType": "address",
          "name": "childAddress",
          "type": "address"
        },
        {
          "internalType": "uint256",
          "name": "childId",
          "type": "uint256"
        },
        {
          "internalType": "bool",
          "name": "isPending",
          "type": "bool"
        },
        {
          "internalType": "bytes",
          "name": "data",
          "type": "bytes"
        }
      ],
      "name": "transferChild",
      "outputs": [],
      "stateMutability": "nonpayable",
      "type": "function"
    },
    {
      "inputs": [
        {
          "internalType": "address",
          "name": "from",
          "type": "address"
        },
        {
          "internalType": "address",
          "name": "to",
          "type": "address"
        },
        {
          "internalType": "uint256",
          "name": "tokenId",
          "type": "uint256"
        }
      ],
      "name": "transferFrom",
      "outputs": [],
      "stateMutability": "nonpayable",
      "type": "function"
    },
    {
      "inputs": [
        {
          "internalType": "uint256",
          "name": "tokenId",
          "type": "uint256"
        },
        {
          "internalType": "uint64",
          "name": "assetId",
          "type": "uint64"
        },
        {
          "internalType": "uint64",
          "name": "slotPartId",
          "type": "uint64"
        }
      ],
      "name": "unequip",
      "outputs": [],
      "stateMutability": "nonpayable",
      "type": "function"
    }
  ],
  "transactionHash": "0xba61d9ca3920960d011352d0a52471c2efb6eb2e1413cbbde50dd4c73a601bc7",
  "args": [],
  "numDeployments": 1,
  "solcInputHash": "73623be5649659c8fe18dc3bf5f392c8",
  "bytecode": "0x60806040527801000000000000000100000000000000010000000000000001601c55601d80546001600160401b03191660011790553480156200004157600080fd5b50604080518082018252600a815269676f6f676c652e636f6d60b01b602080830191909152825180840190935260048352631cdb1bdd60e21b908301526001600055906200008f82620000a2565b6200009a81620000b4565b505062000233565b601a620000b0828262000167565b5050565b601b620000b0828262000167565b634e487b7160e01b600052604160045260246000fd5b600181811c90821680620000ed57607f821691505b6020821081036200010e57634e487b7160e01b600052602260045260246000fd5b50919050565b601f8211156200016257600081815260208120601f850160051c810160208610156200013d5750805b601f850160051c820191505b818110156200015e5782815560010162000149565b5050505b505050565b81516001600160401b03811115620001835762000183620000c2565b6200019b81620001948454620000d8565b8462000114565b602080601f831160018114620001d35760008415620001ba5750858301515b600019600386901b1c1916600185901b1785556200015e565b600085815260208120601f198616915b828110156200020457888601518255948401946001909101908401620001e3565b5085821015620002235787850151600019600388901b60f8161c191681555b5050505050600190811b01905550565b615b7380620002436000396000f3fe608060405234801561001057600080fd5b50600436106103835760003560e01c80637280281e116101de578063dc477d2f1161010f578063e7de4de4116100ad578063fb25fb7a1161007c578063fb25fb7a14610997578063fbd6060c146109d1578063fc3517c8146109e4578063ffa1ad74146109f757600080fd5b8063e7de4de4146108f7578063e97ceaa81461090a578063e985e9c51461091d578063ee1dffcf1461095957600080fd5b8063defa80c3116100e9578063defa80c314610887578063df6f556b1461089a578063e2c1167c146108d1578063e467a48f146108e457600080fd5b8063dc477d2f14610835578063dcb79d5614610861578063de8e602c1461087457600080fd5b80639806c6ec1161017c578063b390c0ab11610156578063b390c0ab146107dc578063b88d4fde146107ef578063c259a98814610802578063d297ac431461081557600080fd5b80639806c6ec14610796578063a22cb465146107b6578063a898e364146107c957600080fd5b806386a92af7116101b857806386a92af7146107535780638d4f3bf51461075b57806391a6262f14610770578063979613361461078357600080fd5b80637280281e146106425780637507e2ae146106555780638507dc281461074057600080fd5b806342842e0e116102b85780635e94354a11610256578063635490cc11610230578063635490cc146105e857806365b67eb9146105fb5780636f19951c1461060e57806370a082311461062157600080fd5b80635e94354a146105af5780635ea72f36146105c25780636352211e146105d557600080fd5b80634e60edba116102925780634e60edba1461055357806351532e5a1461057657806355bd8648146105895780635e2e32921461059c57600080fd5b806342842e0e1461050d57806342966c681461052057806344ec93441461053357600080fd5b806315dae03e1161032557806322f6da9c116102ff57806322f6da9c146104b457806323b872dd146104c75780632f32f937146104da57806338dcf74c146104fa57600080fd5b806315dae03e1461044e5780631c6443991461046357806322e6d1601461047857600080fd5b8063064c0a3a11610361578063064c0a3a146103ea578063074334fb146103fd578063081812fc14610410578063095ea7b31461043b57600080fd5b8063010a38f51461038857806301ffc9a7146103b257806305c07af6146103d5575b600080fd5b601c546001600160401b03165b6040516001600160401b0390911681526020015b60405180910390f35b6103c56103c0366004614b19565b610a18565b60405190151581526020016103a9565b6103e86103e3366004614c9e565b610a29565b005b6103e86103f8366004614d01565b610cae565b6103c561040b366004614d92565b610ccd565b61042361041e366004614de1565b610d3b565b6040516001600160a01b0390911681526020016103a9565b6103e8610449366004614dfa565b610d81565b610456610e0d565b6040516103a99190614e6c565b61046b610e9f565b6040516103a99190614ec3565b6103c5610486366004614ed6565b6001600160a01b039182166000908152600e6020908152604080832093909416825291909152205460ff1690565b6103e86104c2366004614f0f565b610f28565b6103e86104d5366004614f44565b610f43565b6104ed6104e8366004614f85565b610f68565b6040516103a99190614fa7565b6103e861050836600461504b565b610fff565b6103e861051b366004614f44565b611024565b6103e861052e366004614de1565b61103f565b610546610541366004614de1565b61104e565b6040516103a99190615067565b6105666105613660046150c7565b6110d6565b6040516103a994939291906150f3565b61046b610584366004614de1565b6111ad565b6103e8610597366004615141565b611241565b6104566105aa3660046150c7565b6113a1565b61046b6105bd366004614de1565b611490565b6103e86105d0366004614dfa565b6114f9565b6104236105e3366004614de1565b611580565b6103e86105f6366004615184565b611610565b6103e86106093660046151d3565b611725565b61054661061c366004614de1565b611730565b61063461062f36600461520f565b6117a3565b6040519081526020016103a9565b61046b610650366004614de1565b6117e8565b6106f261066336600461522c565b6040805160808082018352600080835260208084018290528385018290526060938401829052968152601387528381206001600160a01b03968716825287528381206001600160401b03958616825287528390208351918201845280548086168352600160401b9004909416958101959095526001830154918501919091526002909101549091169082015290565b6040516103a9919060006080820190506001600160401b0380845116835280602085015116602084015250604083015160408301526001600160a01b03606084015116606083015292915050565b6103e861074e366004615261565b611851565b6104566118e7565b60405163524d524b60e01b81526020016103a9565b6103c561077e36600461528f565b6118f6565b6103e8610791366004614f85565b611937565b6107a96107a43660046152d1565b61194b565b6040516103a99190615411565b6103e86107c4366004615261565b611b71565b6104ed6107d7366004614f85565b611bff565b6106346107ea366004614f85565b611c5c565b6103e86107fd366004615473565b611c72565b6103e86108103660046154de565b611c8f565b610828610823366004615503565b611ca4565b6040516103a9919061551e565b6103c5610843366004615503565b6001600160401b031660009081526018602052604090205460ff1690565b6103c561086f366004615531565b611e24565b6103e861088236600461554d565b611f4e565b6103e86108953660046155cb565b611f63565b6103956108a83660046150c7565b60009182526009602090815260408084206001600160401b039384168552909152909120541690565b6103e86108df366004615666565b611f88565b6104236108f2366004614de1565b611fdc565b6103e8610905366004614f85565b611fff565b6103e86109183660046156d0565b612013565b6103c561092b366004614ed6565b6001600160a01b03918216600090815260036020908152604080832093909416825291909152205460ff1690565b6103c561096736600461570f565b60009283526014602090815260408085206001600160a01b03909416855292815282842091845252902054151590565b6109aa6109a5366004614de1565b612029565b604080516001600160a01b03909416845260208401929092521515908201526060016103a9565b6103e86109df366004615736565b612091565b6103e86109f2366004614f0f565b6120a5565b604080518082019091526005815264191719971960d91b6020820152610456565b6000610a23826120ba565b92915050565b604080516003808252608082019092526000916020820160608036833701905050601c546040805180820190915260048152630c1e0d8d60e21b6020820152919250610a809133916001600160401b0316906120f0565b601d54600090610a9a906001600160401b03166003615799565b601d549091506000906001600160401b03165b826001600160401b0316816001600160401b03161015610b5e57610ad2858783611f88565b80848381518110610ae557610ae56157c0565b6001600160401b039092166020928302919091019091015281610b07816157d6565b601d80549194506001600160401b0390911691506000610b26836157ef565b91906101000a8154816001600160401b0302191690836001600160401b03160217905550508080610b56906157ef565b915050610aad565b50601c54610b82906001600160401b0380821691600160c01b900416308887612182565b601c54610ba3906001600160401b0380821691600160801b90041680612229565b601c54610bc7906001600160401b0380821691600091600160801b9091041661241f565b601c8054601e805460018101825560009182527f50bb669a95c7b50b7e8a6f09454034b2b14cf2b85c730dca9a539ca82cb6e350600482040180546001600160401b0360039093166008026101000a83810219909116948316029390931790925582549091169190610c38836157ef565b91906101000a8154816001600160401b0302191690836001600160401b0316021790555050601c601081819054906101000a90046001600160401b031680929190610c82906157ef565b91906101000a8154816001600160401b0302191690836001600160401b03160217905550505050505050565b82610cb88161265f565b610cc58686868686612689565b505050505050565b6001600160401b038083166000908152601160209081526040808320548416808452601583528184206001600160a01b038a1685529092528220549192909181169084168103610d31576000610d2c86610d26896117e8565b906127a4565b945050505b5050949350505050565b6000610d468261280d565b600082815260026020526040812090610d5e84611580565b6001600160a01b0390811682526020820192909252604001600020541692915050565b6000610d8c82611580565b9050806001600160a01b0316836001600160a01b031603610dc057604051630591db6d60e01b815260040160405180910390fd5b336001600160a01b03821614801590610de05750610dde813361092b565b155b15610dfe57604051634c12315960e11b815260040160405180910390fd5b610e088383612845565b505050565b6060601b8054610e1c90615815565b80601f0160208091040260200160405190810160405280929190818152602001828054610e4890615815565b8015610e955780601f10610e6a57610100808354040283529160200191610e95565b820191906000526020600020905b815481529060010190602001808311610e7857829003601f168201915b5050505050905090565b6060601e805480602002602001604051908101604052809291908181526020018280548015610e9557602002820191906000526020600020906000905b82829054906101000a90046001600160401b03166001600160401b031681526020019060080190602082600701049283019260010382029150808411610edc5790505050505050905090565b82610f32816128be565b610f3d8484846128e5565b50505050565b80610f4d8161265f565b610f3d84848460405180602001604052806000815250612954565b604080518082019091526000808252602082015281610f8684611730565b5111610fa55760405163653e642560e11b815260040160405180910390fd5b6000838152600560205260409020805483908110610fc557610fc56157c0565b60009182526020918290206040805180820190915260029092020180548252600101546001600160a01b0316918101919091529392505050565b805161100a816128be565b611012612ac1565b61101b82612aeb565b50506001600055565b610e0883838360405180602001604052806000815250611c72565b61104a816000611c5c565b5050565b606060066000838152602001908152602001600020805480602002602001604051908101604052809291908181526020016000905b828210156110cb5760008481526020908190206040805180820190915260028502909101805482526001908101546001600160a01b0316828401529083529092019101611083565b505050509050919050565b606060008060606110e786866113a1565b6001600160401b03808716600090815260116020908152604080832054601083528184205460128452938290208054835181860281018601909452808452969a50941697506001600160a01b03909216955090929083018282801561119d57602002820191906000526020600020906000905b82829054906101000a90046001600160401b03166001600160401b03168152602001906008019060208260070104928301926001038202915080841161115a5790505b5050505050905092959194509250565b6000818152600b602090815260409182902080548351818402810184019094528084526060939283018282801561123557602002820191906000526020600020906000905b82829054906101000a90046001600160401b03166001600160401b0316815260200190600801906020826007010492830192600103820291508084116111f25790505b50505050509050919050565b601c546040805180820190915260048152630c1e0d8d60e21b60208201526060916112779133916001600160401b0316906120f0565b601c5461129a906001600160401b0380821691600160c01b900416308585612182565b601c546112bb906001600160401b0380821691600160801b90041680612229565b601c546112df906001600160401b0380821691600091600160801b9091041661241f565b601c546112f69084906001600160401b0316612e60565b601c54611314906001600160401b0380861691600091309116612013565b601c80546001600160401b031690600061132d836157ef565b91906101000a8154816001600160401b0302191690836001600160401b0316021790555050601c601081819054906101000a90046001600160401b031680929190611377906157ef565b91906101000a8154816001600160401b0302191690836001600160401b0316021790555050505050565b6000828152600d602090815260408083206001600160401b038516845290915290205460609060ff166113e757604051631b9928fd60e31b815260040160405180910390fd5b6001600160401b0382166000908152600860205260409020805461140a90615815565b80601f016020809104026020016040519081016040528092919081815260200182805461143690615815565b80156114835780601f1061145857610100808354040283529160200191611483565b820191906000526020600020905b81548152906001019060200180831161146657829003601f168201915b5050505050905092915050565b6000818152600c602090815260409182902080548351818402810184019094528084526060939283018282801561123557600091825260209182902080546001600160401b031684529082028301929091600891018084116111f2575094979650505050505050565b600061150482611580565b9050806001600160a01b0316836001600160a01b031603611538576040516375f45abd60e01b815260040160405180910390fd5b336001600160a01b0382161480159061155857506115568133610486565b155b15611576576040516357a2e94960e11b815260040160405180910390fd5b610e088383612edd565b60008060008061158f85612029565b9250925092508015611607576040516331a9108f60e11b8152600481018390526001600160a01b03841690636352211e90602401602060405180830381865afa1580156115e0573d6000803e3d6000fd5b505050506040513d601f19601f82011682018060405250810190611604919061584f565b92505b50909392505050565b6116198361280d565b33803b60000361163c5760405163b9d3114760e01b815260040160405180910390fd5b604080518082019091528381526001600160a01b038216602082015260006116638661104e565b51905060808110156116c2576000868152600660209081526040822080546001808201835591845292829020855160029094020192835590840151910180546001600160a01b0319166001600160a01b039092169190911790556116db565b60405163a53c8c0560e01b815260040160405180910390fd5b84836001600160a01b0316877fe65085e689b77b126ba0bac3b079aa8288f19f4d5445af11c76003f8ab3075dd8460405161171891815260200190565b60405180910390a4610cc5565b610e08838383612f56565b60008181526005602090815260408083208054825181850281018501909352808352606094929391929091840182156110cb5760008481526020908190206040805180820190915260028502909101805482526001908101546001600160a01b0316828401529083529092019101611083565b60006001600160a01b0382166117cc57604051633bb9143360e11b815260040160405180910390fd5b506001600160a01b031660009081526001602052604090205490565b6000818152600a602090815260409182902080548351818402810184019094528084526060939283018282801561123557600091825260209182902080546001600160401b031684529082028301929091600891018084116111f2575094979650505050505050565b6001600160a01b038216330361187a576040516375f45abd60e01b815260040160405180910390fd5b336000818152600e602090815260408083206001600160a01b03871680855290835292819020805460ff191686151590811790915590519081529192917f0cff4fcf777050010027190b8061fd8bfd1de16d81b1f94e9752df1427a2623591015b60405180910390a35050565b6060601a8054610e1c90615815565b60006001600160a01b038316158061191557506001600160a01b038216155b8061192f575060008481526016602052604090205460ff16155b949350505050565b816119418161300b565b610e088383613032565b8051606090806001600160401b0381111561196857611968614b3d565b6040519080825280602002602001820160405280156119c357816020015b6119b060408051608081019091528060008152600060208201526060604082018190529081015290565b8152602001906001900390816119865790505b50915060005b81811015611b6a5760008482815181106119e5576119e56157c0565b6020908102919091018101516001600160401b03811660009081526017909252604091829020825160808101909352805491935090829060ff166002811115611a3057611a3061535d565b6002811115611a4157611a4161535d565b81528154610100900460ff166020808301919091526001830180546040805182850281018501825282815294019392830182828015611aa957602002820191906000526020600020905b81546001600160a01b03168152600190910190602001808311611a8b575b50505050508152602001600282018054611ac290615815565b80601f0160208091040260200160405190810160405280929190818152602001828054611aee90615815565b8015611b3b5780601f10611b1057610100808354040283529160200191611b3b565b820191906000526020600020905b815481529060010190602001808311611b1e57829003601f168201915b505050505081525050848381518110611b5657611b566157c0565b6020908102919091010152506001016119c9565b5050919050565b6001600160a01b0382163303611b9a57604051630b7b99b960e21b815260040160405180910390fd5b3360008181526003602090815260408083206001600160a01b03871680855290835292819020805460ff191686151590811790915590519081529192917f17307eab39ab6107e8899845ad3d59bd9653f200f220920489ca2b5937696c3191016118db565b604080518082019091526000808252602082015281611c1d8461104e565b5111611c3c5760405163da22687f60e01b815260040160405180910390fd5b6000838152600660205260409020805483908110610fc557610fc56157c0565b600082611c688161265f565b61192f84846130a7565b81611c7c8161265f565b611c8885858585613423565b5050505050565b82611c99816128be565b610f3d848484613458565b611cce60408051608081019091528060008152600060208201526060604082018190529081015290565b6001600160401b038216600090815260176020526040908190208151608081019092528054829060ff166002811115611d0957611d0961535d565b6002811115611d1a57611d1a61535d565b81528154610100900460ff166020808301919091526001830180546040805182850281018501825282815294019392830182828015611d8257602002820191906000526020600020905b81546001600160a01b03168152600190910190602001808311611d64575b50505050508152602001600282018054611d9b90615815565b80601f0160208091040260200160405190810160405280929190818152602001828054611dc790615815565b8015611e145780601f10611de957610100808354040283529160200191611e14565b820191906000526020600020905b815481529060010190602001808311611df757829003601f168201915b5050505050815250509050919050565b6001600160401b03821660009081526018602052604090205460ff1680158015611e7a575060016001600160401b03841660009081526017602052604090205460ff166002811115611e7857611e7861535d565b145b15610a23576001600160401b038316600090815260176020908152604080832060010180548251818502810185019093528083529192909190830182828015611eec57602002820191906000526020600020905b81546001600160a01b03168152600190910190602001808311611ece575b505083519394506000925050505b81811015611f4557828181518110611f1457611f146157c0565b60200260200101516001600160a01b0316856001600160a01b031603611f3d5760019350611f45565b600101611efa565b50505092915050565b82611f58816128be565b610f3d848484613613565b87611f6d8161300b565b611f7d898989898989898961368d565b505050505050505050565b60408051608081018252600181526002602080830191909152818301869052606082018590528251808401909352601d546001600160401b03168352820181905290611fd3816136f5565b611c8883613927565b6000611fe78261280d565b6000828152600f6020526040812090610d5e84611580565b81612009816128be565b610e08838361397e565b8361201d8161300b565b611c8885858585613a76565b6000818152600460209081526040808320815180830190925280548252600101546001600160a01b0316918101829052829182919061207b5760405163089ba7e160e41b815260040160405180910390fd5b6020810151905190959094508415159350915050565b61209c848484611725565b610f3d81610fff565b826120af816128be565b610f3d84848461241f565b60006001600160e01b031982166301ffc9a760e01b1480610a2357506001600160e01b0319821663d912401f60e01b1492915050565b6120fd8383600084613b7c565b60405182906001600160a01b038516906000907fddf252ad1be2c89b69c2b068fc378daa952ba7f163c4a11628f55a4df523b3ef908290a46040805160008082526020820181905284926001600160a01b038716927f04444026cefd1b05506559cab59d1b865ae3ba4ed2fe5c894f04e522776c552d910160405180910390a4505050565b61218c8583613c81565b6001600160a01b0383161580156121a35750805115155b156121c157604051631035ad0760e11b815260040160405180910390fd5b6001600160401b03858116600090815260106020908152604080832080546001600160a01b0319166001600160a01b03891617905560118252808320805467ffffffffffffffff191694891694909417909355601281529190208251610cc5928401906148fc565b6000838152600d602090815260408083206001600160401b038616845290915290205460ff161561226d576040516308fe3c3160e41b815260040160405180910390fd5b6001600160401b0382166000908152600860205260408120805461229090615815565b9050036122b057604051632aa5eff960e11b815260040160405180910390fd5b6000838152600b60205260409020546080116122df5760405163bade3a7b60e01b815260040160405180910390fd5b6000838152600d602090815260408083206001600160401b038681168086529184528285208054600160ff199091168117909155888652600b8552928520805493840181558552929093206004820401805460039092166008026101000a80840219909216919093021790915581161561238d5760008381526009602090815260408083206001600160401b0386811685529252909120805467ffffffffffffffff19169183169190911790555b6040805160018082528183019092526000916020808301908036833701905050905083816000815181106123c3576123c36157c0565b602002602001018181525050816001600160401b0316836001600160401b03167f4a85a0221f784dbe75db7c29c422f474c15bde9211a98e50a30018fa8dfa937b83604051612412919061586c565b60405180910390a3610f3d565b61242a838383613d47565b60008381526009602090815260408083206001600160401b03808616855292528220541690808215612502576124fc83600a60008981526020019081526020016000208054806020026020016040519081016040528092919081815260200182805480156124e957602002820191906000526020600020906000905b82829054906101000a90046001600160401b03166001600160401b0316815260200190600801906020826007010492830192600103820291508084116124a65790505b50505050506127a490919063ffffffff16565b90925090505b8015612583576000868152600a6020526040902080548591908490811061252b5761252b6157c0565b600091825260208083206004830401805460039093166008026101000a6001600160401b03818102199094169584160294909417909355888252600d835260408083209187168352925220805460ff1916905561260e565b6000868152600c60209081526040808320600a83529083208054825460018181018555938652848620600480830490910180546001600160401b0394851660086003958616810261010090810a9283029288021990931691909117909255855496870186559488529587209085040180548b84169590921690950290920a9283029202191617905592505b612619868686613def565b826001600160401b0316846001600160401b0316877f3f2709a99f6c06b4e57bbb38eb0134332f96f51a3da314f41a515adbb28b17cc60405160405180910390a4610cc5565b6126693382613e3d565b612686576040516345f3c98360e11b815260040160405180910390fd5b50565b60008061269585612029565b5091509150866001600160a01b0316826001600160a01b0316146126cc5760405163e146af6f60e01b815260040160405180910390fd5b6001600160a01b038616301480156126e357508385145b1561270157604051633d76b10760e01b815260040160405180910390fd5b61270a86613ee0565b612715858786613f97565b612720878787614088565b6001600160a01b0387166000908152600160208190526040822080549192909161274b9084906158b0565b9091555061275c90508585886140b0565b6001600160a01b038616600090815260016020819052604082208054919290916127879084906158c3565b9091555061279b905082878387898861410f565b50505050505050565b81516000908190815b818110156127fc57846001600160401b03168682815181106127d1576127d16157c0565b60200260200101516001600160401b0316036127f4579250600191506128069050565b6001016127ad565b5060008092509250505b9250929050565b6000818152600460205260409020600101546001600160a01b03166126865760405163089ba7e160e41b815260040160405180910390fd5b600061285082611580565b60008381526002602090815260408083206001600160a01b038581168086529190935281842080546001600160a01b031916938916938417905590519394508593919290917f8c5be1e5ebec7d5bd14f71427d1e84f3dd0314c0f7b2291e5b200ac8c7c3b9259190a4505050565b6128c83382614210565b61268657604051635d64832960e01b815260040160405180910390fd5b6128f0838383613d47565b6128fb838383613def565b6000838152600d602090815260408083206001600160401b0385168085529252808320805460ff1916905551909185917f1010837a46db9510cad56c9b63e97183557a136e9d4ddbec309ce52c99afb1249190a3505050565b60008061296084612029565b5091509150856001600160a01b0316826001600160a01b0316146129975760405163e146af6f60e01b815260040160405180910390fd5b6001600160a01b0385166129be576040516338f646ff60e21b815260040160405180910390fd5b6129c9868686614088565b6001600160a01b038616600090815260016020819052604082208054919290916129f49084906158b0565b90915550612a069050846000876140b0565b6001600160a01b03851660009081526001602081905260408220805491929091612a319084906158c3565b909155505060405184906001600160a01b0380881691908916907fddf252ad1be2c89b69c2b068fc378daa952ba7f163c4a11628f55a4df523b3ef90600090a483856001600160a01b0316876001600160a01b03167f04444026cefd1b05506559cab59d1b865ae3ba4ed2fe5c894f04e522776c552d846000604051611718929190918252602082015260400190565b600260005403612ae4576040516362bfeae960e11b815260040160405180910390fd5b6002600055565b6040808201516001600160401b0390811660009081526010602090815283822054606086015186518452601383528584206001600160a01b039283168086529084528685209582168552949092529390912060020154919290911615612b645760405163bd0650ab60e01b815260040160405180910390fd5b612b7283604001518261428e565b6000612b8684600001518560200151610f68565b60208101518151608087015160405163074334fb60e01b815230600482015260248101929092526001600160401b039081166044830152851660648201529192506001600160a01b03169063074334fb90608401602060405180830381865afa158015612bf7573d6000803e3d6000fd5b505050506040513d601f19601f82011682018060405250810190612c1b91906158d6565b612c3857604051632c36cd3360e01b815260040160405180910390fd5b6020810151604051636e5bceab60e11b81526001600160401b03841660048201526001600160a01b0391821660248201529084169063dcb79d5690604401602060405180830381865afa158015612c93573d6000803e3d6000fd5b505050506040513d601f19601f82011682018060405250810190612cb791906158d6565b612cd457604051637228eff560e11b815260040160405180910390fd5b6040805160808082018352868301516001600160401b0390811683529087015181166020808401918252855184860190815286820180516001600160a01b03908116606088019081528c516000908152601386528981208d8416825286528981208c8916825286528981208951815498518a16600160401b026fffffffffffffffffffffffffffffffff1990991699169890981796909617875592516001808801919091559251600290960180549682166001600160a01b0319909716969096179095558a5184526014835286842090519094168352928152848220865183529052928320805492939192909190612dcd9084906158c3565b92505081905550826001600160401b031685604001516001600160401b031686600001517f1f5de02b1d9c93ca468f54630e1daf13f6dc458a63f8061ff73e85bf9bc38884856000015186602001518a60800151604051612e53939291909283526001600160a01b039190911660208301526001600160401b0316604082015260600190565b60405180910390a4611c88565b6040516318d5243360e21b81526001600160401b038084166004808401919091529083166024830152606060448301526064820152630c1e0d8d60e21b60848201523090819063635490cc9060a401600060405180830381600087803b158015612ec957600080fd5b505af115801561279b573d6000803e3d6000fd5b6000612ee882611580565b6000838152600f602090815260408083206001600160a01b038581168086529190935281842080546001600160a01b031916938916938417905590519394508593919290917fb90cc0d925ac3511ab6af2d7ca73ffcf7ec4bd871fff36b958ecf440079c463e9190a4505050565b6001600160401b0383161580612f7357506001600160401b038116155b15612f91576040516312c33ce360e01b815260040160405180910390fd5b6001600160401b0383811660008181526015602090815260408083206001600160a01b03881680855290835292819020805467ffffffffffffffff19169587169586179055519182527f5b5af0622001a9b735a56357ddc1abd65e6a640126498674daf9d2fb0516072591015b60405180910390a3505050565b613015338261432e565b612686576040516302728a9d60e41b815260040160405180910390fd5b60008281526006602052604090205481101561306157604051631e73178b60e11b815260040160405180910390fd5b6000828152600660205260408120613078916149b4565b60405182907f8ac4a0d65950c3e40448afb2260e2e0ec36ea15644d9b39e37e85472e5f9445190600090a25050565b60008060006130b585612029565b509150915060006130c586611580565b90506130d383600088614088565b60408051602080820183526000918290526001600160a01b038616825260019081905291812080549091906131099084906158b0565b9091555061311a9050600087612845565b6131238661439a565b600061312e87611730565b600088815260056020526040812091925061314991906149b4565b6000878152600660205260408120613160916149b4565b60008781526002602090815260408083206001600160a01b0386168452909152812080546001600160a01b031916905581518190815b818110156133655789831061320f578481815181106131b7576131b76157c0565b6020026020010151602001518582815181106131d5576131d56157c0565b6020908102919091010151516040516306177b2560e41b81526001600160a01b039092166004830152602482015260440160405180910390fd5b60076000868381518110613225576132256157c0565b6020026020010151602001516001600160a01b03166001600160a01b031681526020019081526020016000206000868381518110613265576132656157c0565b602002602001015160000151815260200190815260200160002060009055828a03935084818151811061329a5761329a6157c0565b6020026020010151602001516001600160a01b031663b390c0ab8683815181106132c6576132c66157c0565b6020026020010151600001516001876132df91906158b0565b6040516001600160e01b031960e085901b168152600481019290925260248201526044016020604051808303816000875af1158015613322573d6000803e3d6000fd5b505050506040513d601f19601f8201168201806040525081019061334691906158f3565b6133519060016158c3565b61335b90846158c3565b9250600101613196565b5060008a81526004602052604080822082815560010180546001600160a01b0319169055518b91906001600160a01b038a16907fddf252ad1be2c89b69c2b068fc378daa952ba7f163c4a11628f55a4df523b3ef908390a4604080518781526000602082018190528c9290916001600160a01b038b16917f04444026cefd1b05506559cab59d1b865ae3ba4ed2fe5c894f04e522776c552d910160405180910390a46040805160208101909152600090525098975050505050505050565b61342f84848484612954565b61343b848484846143a5565b610f3d5760405163bcb5663760e01b815260040160405180910390fd5b6001600160401b03808316600090815260106020908152604080832054878452601383528184206001600160a01b039182168086529084528285208787168652845293829020825160808101845281548088168252600160401b90049096169386019390935260018301549185019190915260029091015416606083018190529091906134f8576040516317de7dd760e21b815260040160405180910390fd5b60008581526013602090815260408083206001600160a01b0380871685529083528184206001600160401b0388168552835281842080546fffffffffffffffffffffffffffffffff191681556001808201869055600290910180546001600160a01b0319169055898552601484528285206060870151909216855290835281842085830151855290925282208054919290916135959084906158b0565b92505081905550826001600160401b0316846001600160401b0316867f438e039ebbba8f290f3b5d41aaf3295eccc9b5e6b0e1d52ace700772afb7da13846040015185606001518660200151604051612e53939291909283526001600160a01b039190911660208301526001600160401b0316604082015260600190565b6000838152600a60205260409020548190811461364357604051633581be1d60e11b815260040160405180910390fd5b6000848152600c6020526040902061365c9084846149d5565b5060405184907ff0bfd70b0068f973d58178846ca67112671ec45e060838f7de5662036bcf801790600090a2610f3d565b816136db5760008881526014602090815260408083206001600160a01b03881684528252808320868452909152902054156136db57604051630619dc9d60e21b815260040160405180910390fd5b6136eb88888888888888886144a4565b5050505050505050565b805160208201516001600160401b038216613723576040516312c33ce360e01b815260040160405180910390fd5b6001600160401b03821660009081526017602052604081205460ff1660028111156137505761375061535d565b1461376e57604051630fbdf8dd60e01b815260040160405180910390fd5b6000815160028111156137835761378361535d565b036137a157604051630b65407360e01b815260040160405180910390fd5b6002815160028111156137b6576137b661535d565b1480156137c7575060408101515115155b156137e557604051630b65407360e01b815260040160405180910390fd5b6001600160401b03821660009081526017602052604090208151815483929190829060ff1916600183600281111561381f5761381f61535d565b0217905550602082810151825460ff9091166101000261ff0019909116178255604083015180516138569260018501920190614a51565b506060820151600282019061386b9082615952565b5050601980546001810182556000919091527f944998273e477b495144fb8794c914197f3ccb46be2900f4698fd0ef743c96956004820401805460039092166008026101000a6001600160401b03818102199093169286160291909117905550805160028111156138de576138de61535d565b826001600160401b03167fc4715b52aed3b9dfb2fbdc63e39e234892ec1dd3811d2c671646dbfd3d32d92e836020015184604001518560600151604051612ffe93929190615a11565b8061393181614685565b6001600160401b038216600081815260186020526040808220805460ff19166001179055517f540b0b22993accb6c2b7b0f4a5bd1b7e6419708ef2a68c39f09f01c848ba4fbc9190a25050565b6000828152600b6020526040902054818111156139ae57604051635134ce8960e01b815260040160405180910390fd5b60005b81811015613a2c576000848152600b602052604081208054839081106139d9576139d96157c0565b6000918252602080832060048304015488845260098252604080852060039094166008026101000a9091046001600160401b031684529190529020805467ffffffffffffffff19169055506001016139b1565b506000838152600b60205260408120613a4491614aa6565b60405160009084907f1010837a46db9510cad56c9b63e97183557a136e9d4ddbec309ce52c99afb124908390a3505050565b6000613a828585611bff565b9050613a8f818484614704565b6001600160a01b038316600090815260076020908152604080832085845290915290205415613ad15760405163188a497360e01b815260040160405180910390fd5b6000858152600660205260409020613ae99085614748565b600085815260056020908152604080832080546001808201835591855283852086516002909202019081558584015190820180546001600160a01b0319166001600160a01b03928316179055871680855260078452828520878652845293829020555186815284929188917f29486b9e2ae569b440933a9b1b421467306fa21f3dcad439c262910a634963a99101612e53565b6001600160a01b038416613ba3576040516325bd6bd360e01b815260040160405180910390fd5b6000838152600460205260409020600101546001600160a01b031615613bdc5760405163c5a8d37160e01b815260040160405180910390fd5b82613bfa576040516312c33ce360e01b815260040160405180910390fd5b613c0660008585614088565b6001600160a01b03841660009081526001602081905260408220805491929091613c319084906158c3565b90915550506040805180820182529283526001600160a01b039485166020808501918252600095865260049052932091518255509051600190910180546001600160a01b03191691909216179055565b6001600160401b038216613ca8576040516312c33ce360e01b815260040160405180910390fd5b6001600160401b03821660009081526008602052604081208054613ccb90615815565b90501115613cec576040516308fe3c3160e41b815260040160405180910390fd5b6001600160401b0382166000908152600860205260409020613d0e8282615952565b506040516001600160401b038316907f3cd061096eaf881067d936308fbd8b81d060c45ab2ec910c02b953162befc10990600090a25050565b6000838152600b60205260409020548210613d7557604051630757d52160e01b815260040160405180910390fd5b6000838152600b60205260409020805483908110613d9557613d956157c0565b90600052602060002090600491828204019190066008029054906101000a90046001600160401b03166001600160401b0316816001600160401b031614610e08576040516378eeeecf60e01b815260040160405180910390fd5b6000838152600b60205260409020613e079083614802565b60009283526009602090815260408085206001600160401b039093168552919052909120805467ffffffffffffffff1916905550565b6000806000613e4b84612029565b509150915080600014613e6e57506001600160a01b038481169116149050610a23565b816001600160a01b0316856001600160a01b03161480613eb357506001600160a01b0380831660009081526003602090815260408083209389168352929052205460ff165b80613ed75750846001600160a01b0316613ecc85610d3b565b6001600160a01b0316145b95945050505050565b806001600160a01b03163b600003613f0b5760405163b9d3114760e01b815260040160405180910390fd5b6040516301ffc9a760e01b81526342b0e56f60e01b60048201526001600160a01b038216906301ffc9a790602401602060405180830381865afa158015613f56573d6000803e3d6000fd5b505050506040513d601f19601f82011682018060405250810190613f7a91906158d6565b61268657604051631784ec7360e21b815260040160405180910390fd5b60005b606481101561406e576000806000856001600160a01b031663fb25fb7a866040518263ffffffff1660e01b8152600401613fd691815260200190565b606060405180830381865afa158015613ff3573d6000803e3d6000fd5b505050506040513d601f19601f820116820180604052508101906140179190615a49565b9250925092508061402b5750505050505050565b6001600160a01b0383163014801561404257508682145b15614060576040516324543e6d60e11b815260040160405180910390fd5b509093509150600101613f9a565b50604051630349a6bd60e51b815260040160405180910390fd5b6140938184846118f6565b610e085760405163792fac8360e11b815260040160405180910390fd5b6040805180820182528381526001600160a01b038381166020808401918252600088815260049091529384209251835551600190920180546001600160a01b031916929091169190911790556141069084612845565b610e088361439a565b6040516318d5243360e21b815285906001600160a01b0382169063635490cc9061414190879087908790600401615a81565b600060405180830381600087803b15801561415b57600080fd5b505af115801561416f573d6000803e3d6000fd5b5050505082866001600160a01b0316886001600160a01b03167fddf252ad1be2c89b69c2b068fc378daa952ba7f163c4a11628f55a4df523b3ef60405160405180910390a482866001600160a01b0316886001600160a01b03167f04444026cefd1b05506559cab59d1b865ae3ba4ed2fe5c894f04e522776c552d8888604051614203929190918252602082015260400190565b60405180910390a461279b565b60008061421c83611580565b9050806001600160a01b0316846001600160a01b0316148061426357506001600160a01b038082166000908152600e602090815260408083209388168352929052205460ff165b8061192f5750836001600160a01b031661427c84611fdc565b6001600160a01b031614949350505050565b6001600160401b0382166000908152601260209081526040808320805482518185028101850190935280835261430d9386939291908301828280156124e957600091825260209182902080546001600160401b031684529082028301929091600891018084116124a657905050505050506127a490919063ffffffff16565b91505080610e0857604051634ef44ed560e01b815260040160405180910390fd5b60008061433a83611580565b9050806001600160a01b0316846001600160a01b0316148061438157506001600160a01b0380821660009081526003602090815260408083209388168352929052205460ff165b8061192f5750836001600160a01b031661427c84610d3b565b612686600082612edd565b60006001600160a01b0384163b1561449957604051630a85bd0160e11b81526001600160a01b0385169063150b7a02906143e9903390899088908890600401615aa0565b6020604051808303816000875af1925050508015614424575060408051601f3d908101601f1916820190925261442191810190615ad2565b60015b61447f573d808015614452576040519150601f19603f3d011682016040523d82523d6000602084013e614457565b606091505b5080516144775760405163bcb5663760e01b815260040160405180910390fd5b805181602001fd5b6001600160e01b031916630a85bd0160e11b14905061192f565b506001949350505050565b604080518082019091526000808252602082015282156144cf576144c88987611bff565b90506144dc565b6144d98987610f68565b90505b6144e7818686614704565b821561450a5760008981526006602052604090206145059087614748565b614544565b6001600160a01b038516600090815260076020908152604080832087845282528083208390558b8352600590915290206145449087614748565b6001600160a01b0388161561462e57866145c157604051635c46a7ef60e11b81526001600160a01b0386169063b88d4fde9061458a9030908c9089908890600401615aa0565b600060405180830381600087803b1580156145a457600080fd5b505af11580156145b8573d6000803e3d6000fd5b5050505061462e565b60208101518151604051630326051d60e11b81526001600160a01b039092169163064c0a3a916145fb9130918d918d908990600401615aef565b600060405180830381600087803b15801561461557600080fd5b505af1158015614629573d6000803e3d6000fd5b505050505b6040805187815284151560208201526001600160a01b038a81161582840152915186928816918c917f02d6d6dbcb604d5e1e8c7886456e82a9cdce88b0a580071358f206b5a4d58f709181900360600190a4611f7d565b6001600160401b03811660009081526017602052604081205460ff16908160028111156146b4576146b461535d565b036146d2576040516307ae018160e21b815260040160405180910390fd5b60028160028111156146e6576146e661535d565b0361104a5760405163ae6a3b7760e01b815260040160405180910390fd5b82602001516001600160a01b0316826001600160a01b031614158061472a575082518114155b15610e0857604051637383f2c160e11b815260040160405180910390fd5b81548290614758906001906158b0565b81548110614768576147686157c0565b9060005260206000209060020201828281548110614788576147886157c0565b600091825260209091208254600290920201908155600191820154910180546001600160a01b0319166001600160a01b0390921691909117905581548290806147d3576147d3615b27565b60008281526020812060026000199093019283020190815560010180546001600160a01b031916905590555050565b8154811061482357604051634e23d03560e01b815260040160405180910390fd5b81548290614833906001906158b0565b81548110614843576148436157c0565b90600052602060002090600491828204019190066008029054906101000a90046001600160401b031682828154811061487e5761487e6157c0565b90600052602060002090600491828204019190066008026101000a8154816001600160401b0302191690836001600160401b03160217905550818054806148c7576148c7615b27565b60008281526020902060046000199092019182040180546001600160401b03600860038516026101000a021916905590555050565b828054828255906000526020600020906003016004900481019282156149a45791602002820160005b8382111561496f57835183826101000a8154816001600160401b0302191690836001600160401b031602179055509260200192600801602081600701049283019260010302614925565b80156149a25782816101000a8154906001600160401b03021916905560080160208160070104928301926001030261496f565b505b506149b0929150614ac7565b5090565b50805460008255600202906000526020600020908101906126869190614adc565b828054828255906000526020600020906003016004900481019282156149a45791602002820160005b8382111561496f5783356001600160401b031683826101000a8154816001600160401b0302191690836001600160401b0316021790555092602001926008016020816007010492830192600103026149fe565b8280548282559060005260206000209081019282156149a4579160200282015b828111156149a457825182546001600160a01b0319166001600160a01b03909116178255602090920191600190910190614a71565b50805460008255600301600490049060005260206000209081019061268691905b5b808211156149b05760008155600101614ac8565b5b808211156149b057600081556001810180546001600160a01b0319169055600201614add565b6001600160e01b03198116811461268657600080fd5b600060208284031215614b2b57600080fd5b8135614b3681614b03565b9392505050565b634e487b7160e01b600052604160045260246000fd5b604051601f8201601f191681016001600160401b0381118282101715614b7b57614b7b614b3d565b604052919050565b600082601f830112614b9457600080fd5b81356001600160401b03811115614bad57614bad614b3d565b614bc0601f8201601f1916602001614b53565b818152846020838601011115614bd557600080fd5b816020850160208301376000918101602001919091529392505050565b60006001600160401b03821115614c0b57614c0b614b3d565b5060051b60200190565b6001600160a01b038116811461268657600080fd5b600082601f830112614c3b57600080fd5b81356020614c50614c4b83614bf2565b614b53565b82815260059290921b84018101918181019086841115614c6f57600080fd5b8286015b84811015614c93578035614c8681614c15565b8352918301918301614c73565b509695505050505050565b60008060408385031215614cb157600080fd5b82356001600160401b0380821115614cc857600080fd5b614cd486838701614b83565b93506020850135915080821115614cea57600080fd5b50614cf785828601614c2a565b9150509250929050565b600080600080600060a08688031215614d1957600080fd5b8535614d2481614c15565b94506020860135614d3481614c15565b9350604086013592506060860135915060808601356001600160401b03811115614d5d57600080fd5b614d6988828901614b83565b9150509295509295909350565b80356001600160401b0381168114614d8d57600080fd5b919050565b60008060008060808587031215614da857600080fd5b8435614db381614c15565b935060208501359250614dc860408601614d76565b9150614dd660608601614d76565b905092959194509250565b600060208284031215614df357600080fd5b5035919050565b60008060408385031215614e0d57600080fd5b8235614e1881614c15565b946020939093013593505050565b6000815180845260005b81811015614e4c57602081850181015186830182015201614e30565b506000602082860101526020601f19601f83011685010191505092915050565b602081526000614b366020830184614e26565b600081518084526020808501945080840160005b83811015614eb85781516001600160401b031687529582019590820190600101614e93565b509495945050505050565b602081526000614b366020830184614e7f565b60008060408385031215614ee957600080fd5b8235614ef481614c15565b91506020830135614f0481614c15565b809150509250929050565b600080600060608486031215614f2457600080fd5b8335925060208401359150614f3b60408501614d76565b90509250925092565b600080600060608486031215614f5957600080fd5b8335614f6481614c15565b92506020840135614f7481614c15565b929592945050506040919091013590565b60008060408385031215614f9857600080fd5b50508035926020909101359150565b815181526020808301516001600160a01b03169082015260408101610a23565b600060a08284031215614fd957600080fd5b60405160a081018181106001600160401b0382111715614ffb57614ffb614b3d565b8060405250809150823581526020830135602082015261501d60408401614d76565b604082015261502e60608401614d76565b606082015261503f60808401614d76565b60808201525092915050565b600060a0828403121561505d57600080fd5b614b368383614fc7565b602080825282518282018190526000919060409081850190868401855b828110156150ba576150aa848351805182526020908101516001600160a01b0316910152565b9284019290850190600101615084565b5091979650505050505050565b600080604083850312156150da57600080fd5b823591506150ea60208401614d76565b90509250929050565b6080815260006151066080830187614e26565b6001600160401b03861660208401526001600160a01b038516604084015282810360608401526151368185614e7f565b979650505050505050565b6000806040838503121561515457600080fd5b61515d83614d76565b915060208301356001600160401b0381111561517857600080fd5b614cf785828601614b83565b60008060006060848603121561519957600080fd5b833592506020840135915060408401356001600160401b038111156151bd57600080fd5b6151c986828701614b83565b9150509250925092565b6000806000606084860312156151e857600080fd5b6151f184614d76565b9250602084013561520181614c15565b9150614f3b60408501614d76565b60006020828403121561522157600080fd5b8135614b3681614c15565b60008060006060848603121561524157600080fd5b83359250602084013561520181614c15565b801515811461268657600080fd5b6000806040838503121561527457600080fd5b823561527f81614c15565b91506020830135614f0481615253565b6000806000606084860312156152a457600080fd5b8335925060208401356152b681614c15565b915060408401356152c681614c15565b809150509250925092565b600060208083850312156152e457600080fd5b82356001600160401b038111156152fa57600080fd5b8301601f8101851361530b57600080fd5b8035615319614c4b82614bf2565b81815260059190911b8201830190838101908783111561533857600080fd5b928401925b828410156151365761534e84614d76565b8252928401929084019061533d565b634e487b7160e01b600052602160045260246000fd5b600081518084526020808501945080840160005b83811015614eb85781516001600160a01b031687529582019590820190600101615387565b60008151600381106153ce57634e487b7160e01b600052602160045260246000fd5b8084525060ff60208301511660208401526040820151608060408501526153f86080850182615373565b905060608301518482036060860152613ed78282614e26565b6000602080830181845280855180835260408601915060408160051b870101925083870160005b8281101561546657603f198886030184526154548583516153ac565b94509285019290850190600101615438565b5092979650505050505050565b6000806000806080858703121561548957600080fd5b843561549481614c15565b935060208501356154a481614c15565b92506040850135915060608501356001600160401b038111156154c657600080fd5b6154d287828801614b83565b91505092959194509250565b6000806000606084860312156154f357600080fd5b8335925061520160208501614d76565b60006020828403121561551557600080fd5b614b3682614d76565b602081526000614b3660208301846153ac565b6000806040838503121561554457600080fd5b614ef483614d76565b60008060006040848603121561556257600080fd5b8335925060208401356001600160401b038082111561558057600080fd5b818601915086601f83011261559457600080fd5b8135818111156155a357600080fd5b8760208260051b85010111156155b857600080fd5b6020830194508093505050509250925092565b600080600080600080600080610100898b0312156155e857600080fd5b8835975060208901356155fa81614c15565b96506040890135955060608901359450608089013561561881614c15565b935060a0890135925060c089013561562f81615253565b915060e08901356001600160401b0381111561564a57600080fd5b6156568b828c01614b83565b9150509295985092959890939650565b60008060006060848603121561567b57600080fd5b83356001600160401b038082111561569257600080fd5b61569e87838801614c2a565b945060208601359150808211156156b457600080fd5b506156c186828701614b83565b925050614f3b60408501614d76565b600080600080608085870312156156e657600080fd5b843593506020850135925060408501356156ff81614c15565b9396929550929360600135925050565b60008060006060848603121561572457600080fd5b833592506020840135614f7481614c15565b600080600080610100858703121561574d57600080fd5b61575685614d76565b9350602085013561576681614c15565b925061577460408601614d76565b9150614dd68660608701614fc7565b634e487b7160e01b600052601160045260246000fd5b6001600160401b038181168382160190808211156157b9576157b9615783565b5092915050565b634e487b7160e01b600052603260045260246000fd5b6000600182016157e8576157e8615783565b5060010190565b60006001600160401b0380831681810361580b5761580b615783565b6001019392505050565b600181811c9082168061582957607f821691505b60208210810361584957634e487b7160e01b600052602260045260246000fd5b50919050565b60006020828403121561586157600080fd5b8151614b3681614c15565b6020808252825182820181905260009190848201906040850190845b818110156158a457835183529284019291840191600101615888565b50909695505050505050565b81810381811115610a2357610a23615783565b80820180821115610a2357610a23615783565b6000602082840312156158e857600080fd5b8151614b3681615253565b60006020828403121561590557600080fd5b5051919050565b601f821115610e0857600081815260208120601f850160051c810160208610156159335750805b601f850160051c820191505b81811015610cc55782815560010161593f565b81516001600160401b0381111561596b5761596b614b3d565b61597f816159798454615815565b8461590c565b602080601f8311600181146159b4576000841561599c5750858301515b600019600386901b1c1916600185901b178555610cc5565b600085815260208120601f198616915b828110156159e3578886015182559484019460019091019084016159c4565b5085821015615a015787850151600019600388901b60f8161c191681555b5050505050600190811b01905550565b60ff84168152606060208201526000615a2d6060830185615373565b8281036040840152615a3f8185614e26565b9695505050505050565b600080600060608486031215615a5e57600080fd5b8351615a6981614c15565b6020850151604086015191945092506152c681615253565b838152826020820152606060408201526000613ed76060830184614e26565b60006001600160a01b03808716835280861660208401525083604083015260806060830152615a3f6080830184614e26565b600060208284031215615ae457600080fd5b8151614b3681614b03565b60006001600160a01b03808816835280871660208401525084604083015283606083015260a0608083015261513660a0830184614e26565b634e487b7160e01b600052603160045260246000fdfea26469706673582212200c510224d5dbe6ed17d2244bce49cb5d78257e1d48ad10bb924ae1f4672adf1764736f6c63430008150033",
  "devdoc": {
    "errors": {
      "RMRKIdZeroForbidden()": [
        {
          "details": "The ID 0 in RMRK suite is reserved for empty values. Guarding against its use ensures the expected operation"
        }
      ],
      "RMRKMaxRecursiveBurnsReached(address,uint256)": [
        {
          "params": {
            "childContract": "Address of the collection smart contract in which the maximum number of recursive burns was reached",
            "childId": "ID of the child token at which the maximum number of recursive burns was reached"
          }
        }
      ],
      "RMRKNotApprovedOrDirectOwner()": [
        {
          "details": "When a token is nested, only the direct owner (NFT parent) can mange it. In that case, approved addresses are  not allowed to manage it, in order to ensure the expected behaviour"
        }
      ]
    },
    "events": {
      "AddedEquippables(uint64,address[])": {
        "details": "It is emitted when new addresses are marked as equippable for `partId`.",
        "params": {
          "equippableAddresses": "An array of the new addresses that can equip this part",
          "partId": "ID of the part that had new equippable addresses added"
        }
      },
      "AddedPart(uint64,uint8,uint8,address[],string)": {
        "details": "It is emitted when a new part is added.",
        "params": {
          "equippableAddresses": "An array of addresses that can equip this part",
          "itemType": "Enum value specifying whether the part is `None`, `Slot` and `Fixed`",
          "metadataURI": "The metadata URI of the part",
          "partId": "ID of the part that was added",
          "zIndex": "An uint specifying the z value of the part. It is used to specify the depth which the part should  be rendered at"
        }
      },
      "AllChildrenRejected(uint256)": {
        "details": "Emitted when a token removes all a child tokens from its pending array.",
        "params": {
          "tokenId": "ID of the token that rejected all of the pending children"
        }
      },
      "Approval(address,address,uint256)": {
        "details": "Emitted when `owner` enables `approved` to manage the `tokenId` token."
      },
      "ApprovalForAll(address,address,bool)": {
        "details": "Emitted when `owner` enables or disables (`approved`) `operator` to manage all of its assets."
      },
      "ApprovalForAllForAssets(address,address,bool)": {
        "params": {
          "approved": "Boolean value signifying whether the permission has been granted (`true`) or revoked (`false`)",
          "operator": "Address of the account that has been granted the approval to manage the token's assets on all of  the tokens",
          "owner": "Address of the account that has granted the approval for all assets on all of their tokens"
        }
      },
      "ApprovalForAssets(address,address,uint256)": {
        "details": "Approvals must be cleared on transfer",
        "params": {
          "approved": "Address of the account that has been granted approval to manage the token's assets",
          "owner": "Address of the account that has granted the approval for all token's assets",
          "tokenId": "ID of the token on which the approval was granted"
        }
      },
      "AssetAccepted(uint256,uint64,uint64)": {
        "params": {
          "assetId": "ID of the asset that was accepted",
          "replacesId": "ID of the asset that was replaced",
          "tokenId": "ID of the token that had a new asset accepted"
        }
      },
      "AssetAddedToTokens(uint256[],uint64,uint64)": {
        "params": {
          "assetId": "ID of the asset that has been added to the token's pending assets array",
          "replacesId": "ID of the asset that would be replaced",
          "tokenIds": "An array of token IDs that received a new pending asset"
        }
      },
      "AssetPrioritySet(uint256)": {
        "params": {
          "tokenId": "ID of the token that had the asset priority array updated"
        }
      },
      "AssetRejected(uint256,uint64)": {
        "params": {
          "assetId": "ID of the asset that was rejected",
          "tokenId": "ID of the token that had an asset rejected"
        }
      },
      "AssetSet(uint64)": {
        "params": {
          "assetId": "ID of the asset that was initialized"
        }
      },
      "ChildAccepted(uint256,uint256,address,uint256)": {
        "details": "Emitted when a parent token accepts a token from its pending array, migrating it to the active array.",
        "params": {
          "childAddress": "Address of the child token's collection smart contract",
          "childId": "ID of the child token in the child token's collection smart contract",
          "childIndex": "Index of the newly accepted child token in the parent token's active children array",
          "tokenId": "ID of the token that accepted a new child token"
        }
      },
      "ChildAssetEquipped(uint256,uint64,uint64,uint256,address,uint64)": {
        "params": {
          "assetId": "ID of the asset associated with the token we are equipping into",
          "childAddress": "Address of the child token's collection",
          "childAssetId": "ID of the asset associated with the token we are equipping",
          "childId": "ID of the child token we are equipping into the slot",
          "slotPartId": "ID of the slot we are using to equip",
          "tokenId": "ID of the token that had an asset equipped"
        }
      },
      "ChildAssetUnequipped(uint256,uint64,uint64,uint256,address,uint64)": {
        "params": {
          "assetId": "ID of the asset associated with the token we are unequipping out of",
          "childAddress": "Address of the collection that a token that is being unequipped belongs to",
          "childAssetId": "ID of the asset associated with the token we are unequipping",
          "childId": "ID of the token being unequipped",
          "slotPartId": "ID of the slot we are unequipping from",
          "tokenId": "ID of the token that had an asset unequipped"
        }
      },
      "ChildProposed(uint256,uint256,address,uint256)": {
        "details": "Emitted when a child NFT is added to a token's pending array.",
        "params": {
          "childAddress": "Address of the proposed child token's collection smart contract",
          "childId": "ID of the child token in the child token's collection smart contract",
          "childIndex": "Index of the proposed child token in the parent token's pending children array",
          "tokenId": "ID of the token that received a new pending child token"
        }
      },
      "ChildTransferred(uint256,uint256,address,uint256,bool,bool)": {
        "details": "Emitted when a token transfers a child from itself, transferring ownership to the root owner.",
        "params": {
          "childAddress": "Address of the child token's collection smart contract",
          "childId": "ID of the child token in the child token's collection smart contract",
          "childIndex": "Index of a child in the array from which it is being transferred",
          "fromPending": "A boolean value signifying whether the token was in the pending child tokens array (`true`) or  in the active child tokens array (`false`)",
          "toZero": "A boolean value signifying whether the token is being transferred to the `0x0` address (`true`) or  not (`false`)",
          "tokenId": "ID of the token that transferred a child token"
        }
      },
      "NestTransfer(address,address,uint256,uint256,uint256)": {
        "details": "Emitted when `tokenId` token is transferred from `from` to `to`.",
        "params": {
          "from": "Address of the previous immediate owner, which is a smart contract if the token was nested.",
          "fromTokenId": "ID of the previous parent token. If the token was not nested before, the value should be `0`",
          "to": "Address of the new immediate owner, which is a smart contract if the token is being nested.",
          "toTokenId": "ID of the new parent token. If the token is not being nested, the value should be `0`",
          "tokenId": "ID of the token being transferred"
        }
      },
      "SetEquippableToAll(uint64)": {
        "details": "It is emitted when a given part is marked as equippable by any.",
        "params": {
          "partId": "ID of the part marked as equippable by any address"
        }
      },
      "SetEquippables(uint64,address[])": {
        "details": "It is emitted when the existing list of addresses marked as equippable for `partId` is overwritten by a new one.",
        "params": {
          "equippableAddresses": "The new, full, list of addresses that can equip this part",
          "partId": "ID of the part whose list of equippable addresses was overwritten"
        }
      },
      "Soulbound(uint256,bool)": {
        "params": {
          "state": "A boolean value signifying whether the token became soulbound (`true`) or transferrable (`false`)",
          "tokenId": "ID of the token"
        }
      },
      "Transfer(address,address,uint256)": {
        "details": "Emitted when `tokenId` token is transferred from `from` to `to`."
      },
      "ValidParentEquippableGroupIdSet(uint64,uint64,address)": {
        "params": {
          "equippableGroupId": "ID of the equippable group being marked as equippable into the slot associated with  `slotPartId` of the `parentAddress` collection",
          "parentAddress": "Address of the collection into which the parts belonging to `equippableGroupId` can be  equipped",
          "slotPartId": "ID of the slot part of the catalog into which the parts belonging to the equippable group  associated with `equippableGroupId` can be equipped"
        }
      }
    },
    "kind": "dev",
    "methods": {
      "RMRK_INTERFACE()": {
        "returns": {
          "rmrkInterface": "Interface identifier for implementations of the @rmrk-team/evm-contracts package"
        }
      },
      "VERSION()": {
        "returns": {
          "version": "Version identifier for implementations of the @rmrk-team/evm-contracts package"
        }
      },
      "acceptAsset(uint256,uint256,uint64)": {
        "details": "Migrates the asset from the token's pending asset array to the token's active asset array.Active assets cannot be removed by anyone, but can be replaced by a new asset.Requirements:  - The caller must own the token or be approved to manage the token's assets  - `tokenId` must exist.  - `index` must be in range of the length of the pending asset array.Emits an {AssetAccepted} event.",
        "params": {
          "assetId": "ID of the asset that is being accepted",
          "index": "Index of the asset in the pending array to accept",
          "tokenId": "ID of the token for which to accept the pending asset"
        }
      },
      "acceptChild(uint256,uint256,address,uint256)": {
        "details": "This moves the child token from parent token's pending child tokens array into the active child tokens  array.",
        "params": {
          "childAddress": "Address of the collection smart contract of the child token expected to be located at the  specified index of the given parent token's pending children array",
          "childId": "ID of the child token expected to be located at the specified index of the given parent token's  pending children array",
          "childIndex": "Index of a child tokem in the given parent's pending children array",
          "parentId": "ID of the parent token for which the child token is being accepted"
        }
      },
      "addChild(uint256,uint256,bytes)": {
        "details": "This adds the child token into the given parent token's pending child tokens array.Requirements:  - `directOwnerOf` on the child contract must resolve to the called contract.  - the pending array of the parent contract must not be full.",
        "params": {
          "childId": "ID of the new proposed child token",
          "data": "Additional data with no specified format",
          "parentId": "ID of the parent token to receive the new child token"
        }
      },
      "approve(address,uint256)": {
        "details": "Gives permission to `to` to transfer `tokenId` token to another account.The approval is cleared when the token is transferred.Only a single account can be approved at a time, so approving the zero address clears previous approvals.Requirements: - The caller must own the token or be an approved operator. - `tokenId` must exist.Emits an {Approval} event.",
        "params": {
          "to": "Address receiving the approval",
          "tokenId": "ID of the token for which the approval is being granted"
        }
      },
      "approveForAssets(address,uint256)": {
        "details": "This can only be called by the owner of the token or by an account that has been granted permission to  manage all of the owner's assets.",
        "params": {
          "to": "Address of the account to receive the approval to the specified token",
          "tokenId": "ID of the token for which we are granting the permission"
        }
      },
      "balanceOf(address)": {
        "params": {
          "owner": "Address of the account being checked"
        },
        "returns": {
          "balance": "The balance of the given account"
        }
      },
      "burn(uint256)": {
        "details": "In case the token has any child tokens, the execution will be reverted.",
        "params": {
          "tokenId": "ID of the token to burn"
        }
      },
      "burn(uint256,uint256)": {
        "details": "When a token is burned, all of its child tokens are recursively burned as well.When specifying the maximum recursive burns, the execution will be reverted if there are more children to be  burned.Setting the `maxRecursiveBurn` value to 0 will only attempt to burn the specified token and revert if there  are any child tokens present.The approvals are cleared when the token is burned.Requirements:  - `tokenId` must exist.Emits a {Transfer} event.",
        "params": {
          "maxRecursiveBurns": "Maximum number of tokens to recursively burn",
          "tokenId": "ID of the token to burn"
        },
        "returns": {
          "burnedChildren": "Number of recursively burned children"
        }
      },
      "canTokenBeEquippedWithAssetIntoSlot(address,uint256,uint64,uint64)": {
        "params": {
          "assetId": "ID of the asset associated with the token we want to equip",
          "parent": "Address of the parent token's smart contract",
          "slotId": "ID of the slot that we want to equip the token into",
          "tokenId": "ID of the token we want to equip"
        },
        "returns": {
          "canBeEquipped": "A boolean indicating whether the token with the given asset can be equipped into the desired slot"
        }
      },
      "checkIsEquippable(uint64,address)": {
        "details": "Returns true if a collection may equip asset with `partId`.",
        "params": {
          "partId": "The ID of the part that we are checking",
          "targetAddress": "The address that we are checking for whether the part can be equipped into it or not"
        },
        "returns": {
          "isEquippable": "The status indicating whether the `targetAddress` can be equipped into `Part` with `partId` or not"
        }
      },
      "checkIsEquippableToAll(uint64)": {
        "details": "Returns true if part is equippable to all.",
        "params": {
          "partId": "ID of the part that we are checking"
        },
        "returns": {
          "isEquippable": "The status indicating whether the part with `partId` can be equipped by any address or not"
        }
      },
      "childOf(uint256,uint256)": {
        "details": "Returns a single Child struct locating at `index` of parent token's active child tokens array.The Child struct consists of the following values:  [      tokenId,      contractAddress  ]",
        "params": {
          "index": "Index of the child token in the parent token's active child tokens array",
          "parentId": "ID of the parent token for which the child is being retrieved"
        },
        "returns": {
          "child": "A Child struct containing data about the specified child"
        }
      },
      "childrenOf(uint256)": {
        "details": "Returns array of Child structs existing for parent token.The Child struct consists of the following values:  [      tokenId,      contractAddress  ]",
        "params": {
          "parentId": "ID of the parent token for which to retrieve the active child tokens"
        },
        "returns": {
          "children": "An array of Child structs containing the parent token's active child tokens"
        }
      },
      "directOwnerOf(uint256)": {
        "details": "If the immediate owner is another token, the address returned, should be the one of the parent token's  collection smart contract.",
        "params": {
          "tokenId": "ID of the token for which the RMRK owner is being retrieved"
        },
        "returns": {
          "isNFT": "The boolean value signifying whether the owner is an NFT or not",
          "owner_": "Address of the given token's owner",
          "parentId": "The ID of the parent token. Should be `0` if the owner is an externally owned account"
        }
      },
      "equip((uint256,uint256,uint64,uint64,uint64))": {
        "details": "The `IntakeEquip` stuct contains the following data:  [      tokenId,      childIndex,      assetId,      slotPartId,      childAssetId  ]",
        "params": {
          "data": "An `IntakeEquip` struct specifying the equip data"
        }
      },
      "getActiveAssetPriorities(uint256)": {
        "details": "Asset priorities are a non-sequential array of uint64 values with an array size equal to active asset  priorites.",
        "params": {
          "tokenId": "ID of the token for which to retrieve the priorities of the active assets"
        },
        "returns": {
          "priorities": "An array of priorities of the active assets of the given token"
        }
      },
      "getActiveAssets(uint256)": {
        "details": "Asset data is stored by reference, in order to access the data corresponding to the ID, call  `getAssetMetadata(tokenId, assetId)`.You can safely get 10k",
        "params": {
          "tokenId": "ID of the token to retrieve the IDs of the active assets"
        },
        "returns": {
          "assetIds": "An array of active asset IDs of the given token"
        }
      },
      "getApproved(uint256)": {
        "details": "Requirements:  - `tokenId` must exist.",
        "params": {
          "tokenId": "ID of the token to check for approval"
        },
        "returns": {
          "approved": "Address of the account approved to manage the token"
        }
      },
      "getApprovedForAssets(uint256)": {
        "details": "Requirements:  - `tokenId` must exist.",
        "params": {
          "tokenId": "ID of the token for which to retrieve the approved address"
        },
        "returns": {
          "approved": "Address of the account that is approved to manage the specified token's assets"
        }
      },
      "getAssetAndEquippableData(uint256,uint64)": {
        "params": {
          "assetId": "ID of the asset of which we are retrieving",
          "tokenId": "ID of the token for which to retrieve the asset"
        },
        "returns": {
          "catalogAddress": "The address of the catalog the part belongs to",
          "equippableGroupId": "ID of the equippable group this asset belongs to",
          "metadataURI": "The metadata URI of the asset",
          "partIds": "An array of IDs of parts included in the asset"
        }
      },
      "getAssetMetadata(uint256,uint64)": {
        "details": "Assets are stored by reference mapping `_assets[assetId]`.Can be overriden to implement enumerate, fallback or other custom logic.",
        "params": {
          "assetId": "Asset Id, must be in the active assets array",
          "tokenId": "ID of the token from which to retrieve the asset metadata"
        },
        "returns": {
          "metadata": "The metadata of the asset belonging to the specified index in the token's active assets  array"
        }
      },
      "getAssetReplacements(uint256,uint64)": {
        "details": "Asset data is stored by reference, in order to access the data corresponding to the ID, call  `getAssetMetadata(tokenId, assetId)`.",
        "params": {
          "newAssetId": "ID of the pending asset which will be accepted",
          "tokenId": "ID of the token to check"
        },
        "returns": {
          "replacesAssetId": "ID of the asset which will be replaced"
        }
      },
      "getEquipment(uint256,address,uint64)": {
        "details": "The `Equipment` struct consists of the following data:  [      assetId,      childAssetId,      childId,      childEquippableAddress  ]",
        "params": {
          "slotPartId": "ID of the `Slot` part that we are checking for equipped objects",
          "targetCatalogAddress": "Address of the `Catalog` associated with the `Slot` part of the token",
          "tokenId": "ID of the token for which we are retrieving the equipped object"
        },
        "returns": {
          "equipment": "The `Equipment` struct containing data about the equipped object"
        }
      },
      "getMetadataURI()": {
        "returns": {
          "_0": "Catalog metadata URI"
        }
      },
      "getPart(uint64)": {
        "params": {
          "partId": "ID of the part that we are retrieving"
        },
        "returns": {
          "part": "The `Part` struct associated with given `partId`"
        }
      },
      "getParts(uint64[])": {
        "params": {
          "partIds": "An array of part IDs that we want to retrieve"
        },
        "returns": {
          "parts": "An array of `Part` structs associated with given `partIds`"
        }
      },
      "getPendingAssets(uint256)": {
        "details": "Asset data is stored by reference, in order to access the data corresponding to the ID, call  `getAssetMetadata(tokenId, assetId)`.",
        "params": {
          "tokenId": "ID of the token to retrieve the IDs of the pending assets"
        },
        "returns": {
          "assetIds": "An array of pending asset IDs of the given token"
        }
      },
      "getType()": {
        "returns": {
          "_0": "`itemType` of the associated Catalog"
        }
      },
      "isApprovedForAll(address,address)": {
        "params": {
          "operator": "Address being checked for approval",
          "owner": "Address of the owner of the tokens"
        },
        "returns": {
          "isApproved": "A boolean value signifying whether the *operator* is allowed to manage the tokens of the *owner* (`true`)  or not (`false`)"
        }
      },
      "isApprovedForAllForAssets(address,address)": {
        "details": "See {setApprovalForAllForAssets}.",
        "params": {
          "operator": "Address of the account that we are checking whether it has the operator role or not",
          "owner": "Address of the account that we are checking for whether it has granted the operator role"
        },
        "returns": {
          "isApproved": "A boolean value indicating whether the account we are checking has been granted the operator role"
        }
      },
      "isChildEquipped(uint256,address,uint256)": {
        "details": "This is used to prevent from transferring a child that is equipped.",
        "params": {
          "childAddress": "Address of the child token's smart contract",
          "childId": "ID of the child token",
          "tokenId": "ID of the parent token for which we are querying for"
        },
        "returns": {
          "isEquipped": "A boolean value indicating whether the child token is equipped into the given token or not"
        }
      },
      "isTransferable(uint256,address,address)": {
        "details": "If this function returns `false`, the transfer of the token MUST revert execution.If the tokenId does not exist, this method MUST revert execution, unless the token is being checked for  minting.",
        "params": {
          "from": "Address from which the token is being transferred",
          "to": "Address to which the token is being transferred",
          "tokenId": "ID of the token being checked"
        },
        "returns": {
          "isTransferable_": "Boolean value indicating whether the given token is transferable"
        }
      },
      "nestTransferFrom(address,address,uint256,uint256,bytes)": {
        "params": {
          "data": "Additional data with no specified format, sent in the addChild call",
          "destinationId": "ID of the token to receive the token being transferred",
          "from": "Address of the direct owner of the token to be transferred",
          "to": "Address of the receiving token's collection smart contract",
          "tokenId": "ID of the token being transferred"
        }
      },
      "ownerOf(uint256)": {
        "details": "The *root* owner of the token is an externally owned account (EOA). If the given token is child of another  NFT, this will return an EOA address. Otherwise, if the token is owned by an EOA, this EOA will be returned.",
        "params": {
          "tokenId": "ID of the token for which the *root* owner has been retrieved"
        },
        "returns": {
          "owner_": "The *root* owner of the token"
        }
      },
      "pendingChildOf(uint256,uint256)": {
        "details": "Returns a single Child struct locating at `index` of parent token's active child tokens array.The Child struct consists of the following values:  [      tokenId,      contractAddress  ]",
        "params": {
          "index": "Index of the child token in the parent token's pending child tokens array",
          "parentId": "ID of the parent token for which the pending child token is being retrieved"
        },
        "returns": {
          "child": "A Child struct containting data about the specified child"
        }
      },
      "pendingChildrenOf(uint256)": {
        "details": "Returns array of pending Child structs existing for given parent.The Child struct consists of the following values:  [      tokenId,      contractAddress  ]",
        "params": {
          "parentId": "ID of the parent token for which to retrieve the pending child tokens"
        },
        "returns": {
          "children": "An array of Child structs containing the parent token's pending child tokens"
        }
      },
      "rejectAllAssets(uint256,uint256)": {
        "details": "Effecitvely deletes the pending array.Requirements:  - The caller must own the token or be approved to manage the token's assets  - `tokenId` must exist.Emits a {AssetRejected} event with assetId = 0.",
        "params": {
          "maxRejections": "Maximum number of expected assets to reject, used to prevent from rejecting assets which  arrive just before this operation.",
          "tokenId": "ID of the token of which to clear the pending array."
        }
      },
      "rejectAllChildren(uint256,uint256)": {
        "details": "Removes the children from the pending array mapping.This does not update the ownership storage data on children. If necessary, ownership can be reclaimed by the  rootOwner of the previous parent.Requirements: Requirements: - `parentId` must exist",
        "params": {
          "maxRejections": "Maximum number of expected children to reject, used to prevent from rejecting children which  arrive just before this operation.",
          "parentId": "ID of the parent token for which to reject all of the pending tokens."
        }
      },
      "rejectAsset(uint256,uint256,uint64)": {
        "details": "Removes the asset from the token's pending asset array.Requirements:  - The caller must own the token or be approved to manage the token's assets  - `tokenId` must exist.  - `index` must be in range of the length of the pending asset array.Emits a {AssetRejected} event.",
        "params": {
          "assetId": "ID of the asset that is being rejected",
          "index": "Index of the asset in the pending array to be rejected",
          "tokenId": "ID of the token that the asset is being rejected from"
        }
      },
      "safeTransferFrom(address,address,uint256)": {
        "details": "Requirements:  - `from` cannot be the zero address.  - `to` cannot be the zero address.  - `tokenId` token must exist and be owned by `from`.  - If the caller is not `from`, it must be approved to move this token by either {approve} or {setApprovalForAll}.  - If `to` refers to a smart contract, it must implement {IERC721Receiver-onERC721Received}, which is called upon a safe transfer.Emits a {Transfer} event.",
        "params": {
          "from": "Address to transfer the tokens from",
          "to": "Address to transfer the tokens to",
          "tokenId": "ID of the token to transfer"
        }
      },
      "safeTransferFrom(address,address,uint256,bytes)": {
        "details": "Requirements:  - `from` cannot be the zero address.  - `to` cannot be the zero address.  - `tokenId` token must exist and be owned by `from`.  - If the caller is not `from`, it must be approved to move this token by either {approve} or {setApprovalForAll}.  - If `to` refers to a smart contract, it must implement {IERC721Receiver-onERC721Received}, which is called upon a safe transfer.Emits a {Transfer} event.",
        "params": {
          "data": "Additional data without a specified format to be sent along with the token transaction",
          "from": "Address to transfer the tokens from",
          "to": "Address to transfer the tokens to",
          "tokenId": "ID of the token to transfer"
        }
      },
      "setApprovalForAll(address,bool)": {
        "details": "Operators can call {transferFrom} or {safeTransferFrom} for any token owned by the caller.Requirements: - The `operator` cannot be the caller.Emits an {ApprovalForAll} event.",
        "params": {
          "approved": "A boolean value signifying whether the approval is being granted (`true`) or (`revoked`)",
          "operator": "Address of the operator being managed"
        }
      },
      "setApprovalForAllForAssets(address,bool)": {
        "details": "Operators can call {acceptAsset}, {rejectAsset}, {rejectAllAssets} or {setPriority} for any token  owned by the caller.Requirements:  - The `operator` cannot be the caller.Emits an {ApprovalForAllForAssets} event.",
        "params": {
          "approved": "The boolean value indicating whether the operator role is being granted (`true`) or revoked  (`false`)",
          "operator": "Address of the account to which the operator role is granted or revoked from"
        }
      },
      "setPriority(uint256,uint64[])": {
        "details": "The priority array is a non-sequential list of `uint64`s, where the lowest value is considered highest  priority.Value `0` of a priority is a special case equivalent to unitialized.Requirements:  - The caller must own the token or be approved to manage the token's assets  - `tokenId` must exist.  - The length of `priorities` must be equal the length of the active assets array.Emits a {AssetPrioritySet} event.",
        "params": {
          "priorities": "An array of priority values",
          "tokenId": "ID of the token to set the priorities for"
        }
      },
      "transferChild(uint256,address,uint256,uint256,address,uint256,bool,bytes)": {
        "details": "When transferring a child token, the owner of the token is set to `to`, or is not updated in the event of  `to` being the `0x0` address.",
        "params": {
          "childAddress": "Address of the child token's collection smart contract.",
          "childId": "ID of the child token in its own collection smart contract.",
          "childIndex": "Index of a token we are transferring, in the array it belongs to (can be either active array or  pending array)",
          "data": "Additional data with no specified format, sent in call to `_to`",
          "destinationId": "ID of the token to receive this child token (MUST be 0 if the destination is not a token)",
          "isPending": "A boolean value indicating whether the child token being transferred is in the pending array of  the parent token (`true`) or in the active array (`false`)",
          "to": "Address to which to transfer the token to",
          "tokenId": "ID of the parent token from which the child token is being transferred"
        }
      },
      "transferFrom(address,address,uint256)": {
        "details": "Requirements:  - `from` cannot be the zero address.  - `to` cannot be the zero address.  - `tokenId` token must be owned by `from`.  - If the caller is not `from`, it must be approved to move this token by either {approve} or {setApprovalForAll}.Emits a {Transfer} event.",
        "params": {
          "from": "Address from which to transfer the token from",
          "to": "Address to which to transfer the token to",
          "tokenId": "ID of the token to transfer"
        }
      },
      "unequip(uint256,uint64,uint64)": {
        "details": "This can only be called by the owner of the token or by an account that has been granted permission to  manage the given token by the current owner.",
        "params": {
          "assetId": "ID of the parent's asset that contains the `Slot` into which the child is equipped",
          "slotPartId": "ID of the `Slot` from which to unequip the child",
          "tokenId": "ID of the parent from which the child is being unequipped"
        }
      }
    },
    "version": 1
  },
  "userdoc": {
    "errors": {
      "ERC721AddressZeroIsNotaValidOwner()": [
        {
          "notice": "Attempting to grant the token to 0x0 address"
        }
      ],
      "ERC721ApprovalToCurrentOwner()": [
        {
          "notice": "Attempting to grant approval to the current owner of the token"
        }
      ],
      "ERC721ApproveCallerIsNotOwnerNorApprovedForAll()": [
        {
          "notice": "Attempting to grant approval when not being owner or approved for all should not be permitted"
        }
      ],
      "ERC721ApproveToCaller()": [
        {
          "notice": "Attempting to grant approval to self"
        }
      ],
      "ERC721InvalidTokenId()": [
        {
          "notice": "Attempting to use an invalid token ID"
        }
      ],
      "ERC721MintToTheZeroAddress()": [
        {
          "notice": "Attempting to mint to 0x0 address"
        }
      ],
      "ERC721NotApprovedOrOwner()": [
        {
          "notice": "Attempting to manage a token without being its owner or approved by the owner"
        }
      ],
      "ERC721TokenAlreadyMinted()": [
        {
          "notice": "Attempting to mint an already minted token"
        }
      ],
      "ERC721TransferFromIncorrectOwner()": [
        {
          "notice": "Attempting to transfer the token from an address that is not the owner"
        }
      ],
      "ERC721TransferToNonReceiverImplementer()": [
        {
          "notice": "Attempting to safe transfer to an address that is unable to receive the token"
        }
      ],
      "ERC721TransferToTheZeroAddress()": [
        {
          "notice": "Attempting to transfer the token to a 0x0 address"
        }
      ],
      "RMRKApprovalForAssetsToCurrentOwner()": [
        {
          "notice": "Attempting to grant approval of assets to their current owner"
        }
      ],
      "RMRKApproveForAssetsCallerIsNotOwnerNorApprovedForAll()": [
        {
          "notice": "Attempting to grant approval of assets without being the caller or approved for all"
        }
      ],
      "RMRKAssetAlreadyExists()": [
        {
          "notice": "Attempting to add an asset using an ID that has already been used"
        }
      ],
      "RMRKBadConfig()": [
        {
          "notice": "Attempting to incorrectly configue a Catalog item"
        }
      ],
      "RMRKBadPriorityListLength()": [
        {
          "notice": "Attempting to set the priorities with an array of length that doesn't match the length of active assets array"
        }
      ],
      "RMRKCannotTransferSoulbound()": [
        {
          "notice": "Attempting to transfer a soulbound (non-transferrable) token"
        }
      ],
      "RMRKCatalogRequiredForParts()": [
        {
          "notice": "Attempting to add an asset entry with `Part`s, without setting the `Catalog` address"
        }
      ],
      "RMRKChildAlreadyExists()": [
        {
          "notice": "Attempting to accept a child that has already been accepted"
        }
      ],
      "RMRKChildIndexOutOfRange()": [
        {
          "notice": "Attempting to interact with a child, using index that is higher than the number of children"
        }
      ],
      "RMRKEquippableEquipNotAllowedByCatalog()": [
        {
          "notice": "Attempting to equip a `Part` with a child not approved by the Catalog"
        }
      ],
      "RMRKIdZeroForbidden()": [
        {
          "notice": "Attempting to use ID 0, which is not supported"
        }
      ],
      "RMRKIndexOutOfRange()": [
        {
          "notice": "Attempting to interact with an asset, using index greater than number of assets"
        }
      ],
      "RMRKIsNotContract()": [
        {
          "notice": "Attempting to interact with an end-user account when the contract account is expected"
        }
      ],
      "RMRKMaxPendingAssetsReached()": [
        {
          "notice": "Attempting to add a pending asset after the number of pending assets has reached the limit (default limit is  128)"
        }
      ],
      "RMRKMaxPendingChildrenReached()": [
        {
          "notice": "Attempting to add a pending child after the number of pending children has reached the limit (default limit is 128)"
        }
      ],
      "RMRKMaxRecursiveBurnsReached(address,uint256)": [
        {
          "notice": "Attempting to burn a total number of recursive children higher than maximum set"
        }
      ],
      "RMRKMustUnequipFirst()": [
        {
          "notice": "Attempting to transfer a child before it is unequipped"
        }
      ],
      "RMRKNestableTooDeep()": [
        {
          "notice": "Attempting to nest a child over the nestable limit (current limit is 100 levels of nesting)"
        }
      ],
      "RMRKNestableTransferToDescendant()": [
        {
          "notice": "Attempting to nest the token to own descendant, which would create a loop and leave the looped tokens in limbo"
        }
      ],
      "RMRKNestableTransferToNonRMRKNestableImplementer()": [
        {
          "notice": "Attempting to nest the token to a smart contract that doesn't support nesting"
        }
      ],
      "RMRKNestableTransferToSelf()": [
        {
          "notice": "Attempting to nest the token into itself"
        }
      ],
      "RMRKNoAssetMatchingId()": [
        {
          "notice": "Attempting to interact with an asset that can not be found"
        }
      ],
      "RMRKNotApprovedForAssetsOrOwner()": [
        {
          "notice": "Attempting to manage an asset without owning it or having been granted permission by the owner to do so"
        }
      ],
      "RMRKNotApprovedOrDirectOwner()": [
        {
          "notice": "Attempting to interact with a token without being its owner or having been granted permission by the  owner to do so"
        }
      ],
      "RMRKNotEquipped()": [
        {
          "notice": "Attempting to unequip an item that isn't equipped"
        }
      ],
      "RMRKPartAlreadyExists()": [
        {
          "notice": "Attempting to add a `Part` with an ID that is already used"
        }
      ],
      "RMRKPartDoesNotExist()": [
        {
          "notice": "Attempting to use a `Part` that doesn't exist"
        }
      ],
      "RMRKPartIsNotSlot()": [
        {
          "notice": "Attempting to use a `Part` that is `Fixed` when `Slot` kind of `Part` should be used"
        }
      ],
      "RMRKPendingChildIndexOutOfRange()": [
        {
          "notice": "Attempting to interact with a pending child using an index greater than the size of pending array"
        }
      ],
      "RMRKSlotAlreadyUsed()": [
        {
          "notice": "Attempting to equip an item into a slot that already has an item equipped"
        }
      ],
      "RMRKTargetAssetCannotReceiveSlot()": [
        {
          "notice": "Attempting to equip an item into a `Slot` that the target asset does not implement"
        }
      ],
      "RMRKTokenCannotBeEquippedWithAssetIntoSlot()": [
        {
          "notice": "Attempting to equip a child into a `Slot` and parent that the child's collection doesn't support"
        }
      ],
      "RMRKTokenDoesNotHaveAsset()": [
        {
          "notice": "Attempting to compose a NFT of a token without active assets"
        }
      ],
      "RMRKUnexpectedAssetId()": [
        {
          "notice": "Attempting to accept or reject an asset which does not match the one at the specified index"
        }
      ],
      "RMRKUnexpectedChildId()": [
        {
          "notice": "Attempting to accept or transfer a child which does not match the one at the specified index"
        }
      ],
      "RMRKUnexpectedNumberOfAssets()": [
        {
          "notice": "Attempting to reject all pending assets but more assets than expected are pending"
        }
      ],
      "RMRKUnexpectedNumberOfChildren()": [
        {
          "notice": "Attempting to reject all pending children but children assets than expected are pending"
        }
      ]
    },
    "events": {
      "AddedEquippables(uint64,address[])": {
        "notice": "Event to announce new equippables to the part."
      },
      "AddedPart(uint64,uint8,uint8,address[],string)": {
        "notice": "Event to announce addition of a new part."
      },
      "AllChildrenRejected(uint256)": {
        "notice": "Used to notify listeners that all pending child tokens of a given token have been rejected."
      },
      "ApprovalForAllForAssets(address,address,bool)": {
        "notice": "Used to notify listeners that owner has granted approval to the user to manage assets of all of their  tokens."
      },
      "ApprovalForAssets(address,address,uint256)": {
        "notice": "Used to notify listeners that owner has granted an approval to the user to manage the assets of a  given token."
      },
      "AssetAccepted(uint256,uint64,uint64)": {
        "notice": "Used to notify listeners that an asset object at `assetId` is accepted by the token and migrated  from token's pending assets array to active assets array of the token."
      },
      "AssetAddedToTokens(uint256[],uint64,uint64)": {
        "notice": "Used to notify listeners that an asset object at `assetId` is added to token's pending asset  array."
      },
      "AssetPrioritySet(uint256)": {
        "notice": "Used to notify listeners that token's prioritiy array is reordered."
      },
      "AssetRejected(uint256,uint64)": {
        "notice": "Used to notify listeners that an asset object at `assetId` is rejected from token and is dropped  from the pending assets array of the token."
      },
      "AssetSet(uint64)": {
        "notice": "Used to notify listeners that an asset object is initialized at `assetId`."
      },
      "ChildAccepted(uint256,uint256,address,uint256)": {
        "notice": "Used to notify listeners that a new child token was accepted by the parent token."
      },
      "ChildAssetEquipped(uint256,uint64,uint64,uint256,address,uint64)": {
        "notice": "Used to notify listeners that a child's asset has been equipped into one of its parent assets."
      },
      "ChildAssetUnequipped(uint256,uint64,uint64,uint256,address,uint64)": {
        "notice": "Used to notify listeners that a child's asset has been unequipped from one of its parent assets."
      },
      "ChildProposed(uint256,uint256,address,uint256)": {
        "notice": "Used to notify listeners that a new token has been added to a given token's pending children array."
      },
      "ChildTransferred(uint256,uint256,address,uint256,bool,bool)": {
        "notice": "Used to notify listeners a child token has been transferred from parent token."
      },
      "NestTransfer(address,address,uint256,uint256,uint256)": {
        "notice": "Used to notify listeners that the token is being transferred."
      },
      "SetEquippableToAll(uint64)": {
        "notice": "Event to announce that a given part can be equipped by any address."
      },
      "SetEquippables(uint64,address[])": {
        "notice": "Event to announce the overriding of equippable addresses of the part."
      },
      "Soulbound(uint256,bool)": {
        "notice": "Emitted when a token's soulbound state changes."
      },
      "ValidParentEquippableGroupIdSet(uint64,uint64,address)": {
        "notice": "Used to notify listeners that the assets belonging to a `equippableGroupId` have been marked as  equippable into a given slot and parent"
      }
    },
    "kind": "user",
    "methods": {
      "RMRK_INTERFACE()": {
        "notice": "Interface identifier of the @rmrk-team/evm-contracts package"
      },
      "VERSION()": {
        "notice": "Version of the @rmrk-team/evm-contracts package"
      },
      "acceptAsset(uint256,uint256,uint64)": {
        "notice": "Accepts a asset at from the pending array of given token."
      },
      "acceptChild(uint256,uint256,address,uint256)": {
        "notice": "Used to accept a pending child token for a given parent token."
      },
      "addChild(uint256,uint256,bytes)": {
        "notice": "Used to add a child token to a given parent token."
      },
      "approve(address,uint256)": {
        "notice": "Used to grant a one-time approval to manage one's token."
      },
      "approveForAssets(address,uint256)": {
        "notice": "Used to grant approvals for specific tokens to a specified address."
      },
      "balanceOf(address)": {
        "notice": "Used to retrieve the number of tokens in `owner`'s account."
      },
      "burn(uint256)": {
        "notice": "Used to burn a given token."
      },
      "burn(uint256,uint256)": {
        "notice": "Used to burn a given token."
      },
      "canTokenBeEquippedWithAssetIntoSlot(address,uint256,uint64,uint64)": {
        "notice": "Used to verify whether a token can be equipped into a given parent's slot."
      },
      "checkIsEquippable(uint64,address)": {
        "notice": "Used to check whether the given address is allowed to equip the desired `Part`."
      },
      "checkIsEquippableToAll(uint64)": {
        "notice": "Used to check if the part is equippable by all addresses."
      },
      "childOf(uint256,uint256)": {
        "notice": "Used to retrieve a specific active child token for a given parent token."
      },
      "childrenOf(uint256)": {
        "notice": "Used to retrieve the active child tokens of a given parent token."
      },
      "directOwnerOf(uint256)": {
        "notice": "Used to retrieve the immediate owner of the given token."
      },
      "equip((uint256,uint256,uint64,uint64,uint64))": {
        "notice": "Used to equip a child into a token."
      },
      "getActiveAssetPriorities(uint256)": {
        "notice": "Used to retrieve the priorities of the active resoources of a given token."
      },
      "getActiveAssets(uint256)": {
        "notice": "Used to retrieve IDs of the active assets of given token."
      },
      "getApproved(uint256)": {
        "notice": "Used to retrieve the account approved to manage given token."
      },
      "getApprovedForAssets(uint256)": {
        "notice": "Used to retrieve the address of the account approved to manage assets of a given token."
      },
      "getAssetAndEquippableData(uint256,uint64)": {
        "notice": "Used to get the asset and equippable data associated with given `assetId`."
      },
      "getAssetMetadata(uint256,uint64)": {
        "notice": "Used to fetch the asset metadata of the specified token's active asset with the given index."
      },
      "getAssetReplacements(uint256,uint64)": {
        "notice": "Used to retrieve the asset that will be replaced if a given asset from the token's pending array  is accepted."
      },
      "getEquipment(uint256,address,uint64)": {
        "notice": "Used to get the Equipment object equipped into the specified slot of the desired token."
      },
      "getMetadataURI()": {
        "notice": "Used to return the metadata URI of the associated Catalog."
      },
      "getPart(uint64)": {
        "notice": "Used to retrieve a `Part` with id `partId`"
      },
      "getParts(uint64[])": {
        "notice": "Used to retrieve multiple parts at the same time."
      },
      "getPendingAssets(uint256)": {
        "notice": "Used to retrieve IDs of the pending assets of given token."
      },
      "getType()": {
        "notice": "Used to return the `itemType` of the associated Catalog"
      },
      "isApprovedForAll(address,address)": {
        "notice": "Used to check if the given address is allowed to manage the tokens of the specified address."
      },
      "isApprovedForAllForAssets(address,address)": {
        "notice": "Used to check whether the address has been granted the operator role by a given address or not."
      },
      "isChildEquipped(uint256,address,uint256)": {
        "notice": "Used to check whether the token has a given child equipped."
      },
      "isTransferable(uint256,address,address)": {
        "notice": "Used to check whether the given token is transferable or not."
      },
      "nestTransferFrom(address,address,uint256,uint256,bytes)": {
        "notice": "Used to transfer the token into another token."
      },
      "ownerOf(uint256)": {
        "notice": "Used to retrieve the *root* owner of a given token."
      },
      "pendingChildOf(uint256,uint256)": {
        "notice": "Used to retrieve a specific pending child token from a given parent token."
      },
      "pendingChildrenOf(uint256)": {
        "notice": "Used to retrieve the pending child tokens of a given parent token."
      },
      "rejectAllAssets(uint256,uint256)": {
        "notice": "Rejects all assets from the pending array of a given token."
      },
      "rejectAllChildren(uint256,uint256)": {
        "notice": "Used to reject all pending children of a given parent token."
      },
      "rejectAsset(uint256,uint256,uint64)": {
        "notice": "Rejects a asset from the pending array of given token."
      },
      "safeTransferFrom(address,address,uint256)": {
        "notice": "Used to safely transfer a given token token from `from` to `to`."
      },
      "safeTransferFrom(address,address,uint256,bytes)": {
        "notice": "Used to safely transfer a given token token from `from` to `to`."
      },
      "setApprovalForAll(address,bool)": {
        "notice": "Used to approve or remove `operator` as an operator for the caller."
      },
      "setApprovalForAllForAssets(address,bool)": {
        "notice": "Used to add or remove an operator of assets for the caller."
      },
      "setPriority(uint256,uint64[])": {
        "notice": "Sets a new priority array for a given token."
      },
      "transferChild(uint256,address,uint256,uint256,address,uint256,bool,bytes)": {
        "notice": "Used to transfer a child token from a given parent token."
      },
      "transferFrom(address,address,uint256)": {
        "notice": "Transfers a given token from `from` to `to`."
      },
      "unequip(uint256,uint64,uint64)": {
        "notice": "Used to unequip child from parent token."
      }
    },
    "version": 1
  },
  "storageLayout": {
    "storage": [
      {
        "astId": 11029,
        "contract": "contracts/Equippable.sol:Equippale",
        "label": "_status",
        "offset": 0,
        "slot": "0",
        "type": "t_uint256"
      },
      {
        "astId": 8603,
        "contract": "contracts/Equippable.sol:Equippale",
        "label": "_balances",
        "offset": 0,
        "slot": "1",
        "type": "t_mapping(t_address,t_uint256)"
      },
      {
        "astId": 8609,
        "contract": "contracts/Equippable.sol:Equippale",
        "label": "_tokenApprovals",
        "offset": 0,
        "slot": "2",
        "type": "t_mapping(t_uint256,t_mapping(t_address,t_address))"
      },
      {
        "astId": 8615,
        "contract": "contracts/Equippable.sol:Equippale",
        "label": "_operatorApprovals",
        "offset": 0,
        "slot": "3",
        "type": "t_mapping(t_address,t_mapping(t_address,t_bool))"
      },
      {
        "astId": 8620,
        "contract": "contracts/Equippable.sol:Equippale",
        "label": "_RMRKOwners",
        "offset": 0,
        "slot": "4",
        "type": "t_mapping(t_uint256,t_struct(DirectOwner)4990_storage)"
      },
      {
        "astId": 8626,
        "contract": "contracts/Equippable.sol:Equippale",
        "label": "_activeChildren",
        "offset": 0,
        "slot": "5",
        "type": "t_mapping(t_uint256,t_array(t_struct(Child)5051_storage)dyn_storage)"
      },
      {
        "astId": 8632,
        "contract": "contracts/Equippable.sol:Equippale",
        "label": "_pendingChildren",
        "offset": 0,
        "slot": "6",
        "type": "t_mapping(t_uint256,t_array(t_struct(Child)5051_storage)dyn_storage)"
      },
      {
        "astId": 8638,
        "contract": "contracts/Equippable.sol:Equippale",
        "label": "_childIsInActive",
        "offset": 0,
        "slot": "7",
        "type": "t_mapping(t_address,t_mapping(t_uint256,t_uint256))"
      },
      {
        "astId": 2299,
        "contract": "contracts/Equippable.sol:Equippale",
        "label": "_assets",
        "offset": 0,
        "slot": "8",
        "type": "t_mapping(t_uint64,t_string_storage)"
      },
      {
        "astId": 2306,
        "contract": "contracts/Equippable.sol:Equippale",
        "label": "_assetReplacements",
        "offset": 0,
        "slot": "9",
        "type": "t_mapping(t_uint256,t_mapping(t_uint64,t_uint64))"
      },
      {
        "astId": 2312,
        "contract": "contracts/Equippable.sol:Equippale",
        "label": "_activeAssets",
        "offset": 0,
        "slot": "10",
        "type": "t_mapping(t_uint256,t_array(t_uint64)dyn_storage)"
      },
      {
        "astId": 2318,
        "contract": "contracts/Equippable.sol:Equippale",
        "label": "_pendingAssets",
        "offset": 0,
        "slot": "11",
        "type": "t_mapping(t_uint256,t_array(t_uint64)dyn_storage)"
      },
      {
        "astId": 2324,
        "contract": "contracts/Equippable.sol:Equippale",
        "label": "_activeAssetPriorities",
        "offset": 0,
        "slot": "12",
        "type": "t_mapping(t_uint256,t_array(t_uint64)dyn_storage)"
      },
      {
        "astId": 2331,
        "contract": "contracts/Equippable.sol:Equippale",
        "label": "_tokenAssets",
        "offset": 0,
        "slot": "13",
        "type": "t_mapping(t_uint256,t_mapping(t_uint64,t_bool))"
      },
      {
        "astId": 2338,
        "contract": "contracts/Equippable.sol:Equippale",
        "label": "_operatorApprovalsForAssets",
        "offset": 0,
        "slot": "14",
        "type": "t_mapping(t_address,t_mapping(t_address,t_bool))"
      },
      {
        "astId": 6314,
        "contract": "contracts/Equippable.sol:Equippale",
        "label": "_tokenApprovalsForAssets",
        "offset": 0,
        "slot": "15",
        "type": "t_mapping(t_uint256,t_mapping(t_address,t_address))"
      },
      {
        "astId": 6319,
        "contract": "contracts/Equippable.sol:Equippale",
        "label": "_catalogAddresses",
        "offset": 0,
        "slot": "16",
        "type": "t_mapping(t_uint64,t_address)"
      },
      {
        "astId": 6324,
        "contract": "contracts/Equippable.sol:Equippale",
        "label": "_equippableGroupIds",
        "offset": 0,
        "slot": "17",
        "type": "t_mapping(t_uint64,t_uint64)"
      },
      {
        "astId": 6330,
        "contract": "contracts/Equippable.sol:Equippale",
        "label": "_partIds",
        "offset": 0,
        "slot": "18",
        "type": "t_mapping(t_uint64,t_array(t_uint64)dyn_storage)"
      },
      {
        "astId": 6340,
        "contract": "contracts/Equippable.sol:Equippale",
        "label": "_equipments",
        "offset": 0,
        "slot": "19",
        "type": "t_mapping(t_uint256,t_mapping(t_address,t_mapping(t_uint64,t_struct(Equipment)4832_storage)))"
      },
      {
        "astId": 6349,
        "contract": "contracts/Equippable.sol:Equippale",
        "label": "_equipCountPerChild",
        "offset": 0,
        "slot": "20",
        "type": "t_mapping(t_uint256,t_mapping(t_address,t_mapping(t_uint256,t_uint256)))"
      },
      {
        "astId": 6356,
        "contract": "contracts/Equippable.sol:Equippale",
        "label": "_validParentSlots",
        "offset": 0,
        "slot": "21",
        "type": "t_mapping(t_uint64,t_mapping(t_address,t_uint64))"
      },
      {
        "astId": 10959,
        "contract": "contracts/Equippable.sol:Equippale",
        "label": "_isSoulbound",
        "offset": 0,
        "slot": "22",
        "type": "t_mapping(t_uint256,t_bool)"
      },
      {
        "astId": 5688,
        "contract": "contracts/Equippable.sol:Equippale",
        "label": "_parts",
        "offset": 0,
        "slot": "23",
        "type": "t_mapping(t_uint64,t_struct(Part)5433_storage)"
      },
      {
        "astId": 5693,
        "contract": "contracts/Equippable.sol:Equippale",
        "label": "_isEquippableToAll",
        "offset": 0,
        "slot": "24",
        "type": "t_mapping(t_uint64,t_bool)"
      },
      {
        "astId": 5696,
        "contract": "contracts/Equippable.sol:Equippale",
        "label": "_partIds",
        "offset": 0,
        "slot": "25",
        "type": "t_array(t_uint64)dyn_storage"
      },
      {
        "astId": 5698,
        "contract": "contracts/Equippable.sol:Equippale",
        "label": "_metadataURI",
        "offset": 0,
        "slot": "26",
        "type": "t_string_storage"
      },
      {
        "astId": 5700,
        "contract": "contracts/Equippable.sol:Equippale",
        "label": "_type",
        "offset": 0,
        "slot": "27",
        "type": "t_string_storage"
      },
      {
        "astId": 4292,
        "contract": "contracts/Equippable.sol:Equippale",
        "label": "tokenId",
        "offset": 0,
        "slot": "28",
        "type": "t_uint64"
      },
      {
        "astId": 4295,
        "contract": "contracts/Equippable.sol:Equippale",
        "label": "childId",
        "offset": 8,
        "slot": "28",
        "type": "t_uint64"
      },
      {
        "astId": 4298,
        "contract": "contracts/Equippable.sol:Equippale",
        "label": "assetId",
        "offset": 16,
        "slot": "28",
        "type": "t_uint64"
      },
      {
        "astId": 4301,
        "contract": "contracts/Equippable.sol:Equippale",
        "label": "groupId",
        "offset": 24,
        "slot": "28",
        "type": "t_uint64"
      },
      {
        "astId": 4304,
        "contract": "contracts/Equippable.sol:Equippale",
        "label": "partId",
        "offset": 0,
        "slot": "29",
        "type": "t_uint64"
      },
      {
        "astId": 4307,
        "contract": "contracts/Equippable.sol:Equippale",
        "label": "parentTokens",
        "offset": 0,
        "slot": "30",
        "type": "t_array(t_uint64)dyn_storage"
      }
    ],
    "types": {
      "t_address": {
        "encoding": "inplace",
        "label": "address",
        "numberOfBytes": "20"
      },
      "t_array(t_address)dyn_storage": {
        "base": "t_address",
        "encoding": "dynamic_array",
        "label": "address[]",
        "numberOfBytes": "32"
      },
      "t_array(t_struct(Child)5051_storage)dyn_storage": {
        "base": "t_struct(Child)5051_storage",
        "encoding": "dynamic_array",
        "label": "struct IERC7401.Child[]",
        "numberOfBytes": "32"
      },
      "t_array(t_uint64)dyn_storage": {
        "base": "t_uint64",
        "encoding": "dynamic_array",
        "label": "uint64[]",
        "numberOfBytes": "32"
      },
      "t_bool": {
        "encoding": "inplace",
        "label": "bool",
        "numberOfBytes": "1"
      },
      "t_enum(ItemType)5421": {
        "encoding": "inplace",
        "label": "enum IRMRKCatalog.ItemType",
        "numberOfBytes": "1"
      },
      "t_mapping(t_address,t_address)": {
        "encoding": "mapping",
        "key": "t_address",
        "label": "mapping(address => address)",
        "numberOfBytes": "32",
        "value": "t_address"
      },
      "t_mapping(t_address,t_bool)": {
        "encoding": "mapping",
        "key": "t_address",
        "label": "mapping(address => bool)",
        "numberOfBytes": "32",
        "value": "t_bool"
      },
      "t_mapping(t_address,t_mapping(t_address,t_bool))": {
        "encoding": "mapping",
        "key": "t_address",
        "label": "mapping(address => mapping(address => bool))",
        "numberOfBytes": "32",
        "value": "t_mapping(t_address,t_bool)"
      },
      "t_mapping(t_address,t_mapping(t_uint256,t_uint256))": {
        "encoding": "mapping",
        "key": "t_address",
        "label": "mapping(address => mapping(uint256 => uint256))",
        "numberOfBytes": "32",
        "value": "t_mapping(t_uint256,t_uint256)"
      },
      "t_mapping(t_address,t_mapping(t_uint64,t_struct(Equipment)4832_storage))": {
        "encoding": "mapping",
        "key": "t_address",
        "label": "mapping(address => mapping(uint64 => struct IERC6220.Equipment))",
        "numberOfBytes": "32",
        "value": "t_mapping(t_uint64,t_struct(Equipment)4832_storage)"
      },
      "t_mapping(t_address,t_uint256)": {
        "encoding": "mapping",
        "key": "t_address",
        "label": "mapping(address => uint256)",
        "numberOfBytes": "32",
        "value": "t_uint256"
      },
      "t_mapping(t_address,t_uint64)": {
        "encoding": "mapping",
        "key": "t_address",
        "label": "mapping(address => uint64)",
        "numberOfBytes": "32",
        "value": "t_uint64"
      },
      "t_mapping(t_uint256,t_array(t_struct(Child)5051_storage)dyn_storage)": {
        "encoding": "mapping",
        "key": "t_uint256",
        "label": "mapping(uint256 => struct IERC7401.Child[])",
        "numberOfBytes": "32",
        "value": "t_array(t_struct(Child)5051_storage)dyn_storage"
      },
      "t_mapping(t_uint256,t_array(t_uint64)dyn_storage)": {
        "encoding": "mapping",
        "key": "t_uint256",
        "label": "mapping(uint256 => uint64[])",
        "numberOfBytes": "32",
        "value": "t_array(t_uint64)dyn_storage"
      },
      "t_mapping(t_uint256,t_bool)": {
        "encoding": "mapping",
        "key": "t_uint256",
        "label": "mapping(uint256 => bool)",
        "numberOfBytes": "32",
        "value": "t_bool"
      },
      "t_mapping(t_uint256,t_mapping(t_address,t_address))": {
        "encoding": "mapping",
        "key": "t_uint256",
        "label": "mapping(uint256 => mapping(address => address))",
        "numberOfBytes": "32",
        "value": "t_mapping(t_address,t_address)"
      },
      "t_mapping(t_uint256,t_mapping(t_address,t_mapping(t_uint256,t_uint256)))": {
        "encoding": "mapping",
        "key": "t_uint256",
        "label": "mapping(uint256 => mapping(address => mapping(uint256 => uint256)))",
        "numberOfBytes": "32",
        "value": "t_mapping(t_address,t_mapping(t_uint256,t_uint256))"
      },
      "t_mapping(t_uint256,t_mapping(t_address,t_mapping(t_uint64,t_struct(Equipment)4832_storage)))": {
        "encoding": "mapping",
        "key": "t_uint256",
        "label": "mapping(uint256 => mapping(address => mapping(uint64 => struct IERC6220.Equipment)))",
        "numberOfBytes": "32",
        "value": "t_mapping(t_address,t_mapping(t_uint64,t_struct(Equipment)4832_storage))"
      },
      "t_mapping(t_uint256,t_mapping(t_uint64,t_bool))": {
        "encoding": "mapping",
        "key": "t_uint256",
        "label": "mapping(uint256 => mapping(uint64 => bool))",
        "numberOfBytes": "32",
        "value": "t_mapping(t_uint64,t_bool)"
      },
      "t_mapping(t_uint256,t_mapping(t_uint64,t_uint64))": {
        "encoding": "mapping",
        "key": "t_uint256",
        "label": "mapping(uint256 => mapping(uint64 => uint64))",
        "numberOfBytes": "32",
        "value": "t_mapping(t_uint64,t_uint64)"
      },
      "t_mapping(t_uint256,t_struct(DirectOwner)4990_storage)": {
        "encoding": "mapping",
        "key": "t_uint256",
        "label": "mapping(uint256 => struct IERC7401.DirectOwner)",
        "numberOfBytes": "32",
        "value": "t_struct(DirectOwner)4990_storage"
      },
      "t_mapping(t_uint256,t_uint256)": {
        "encoding": "mapping",
        "key": "t_uint256",
        "label": "mapping(uint256 => uint256)",
        "numberOfBytes": "32",
        "value": "t_uint256"
      },
      "t_mapping(t_uint64,t_address)": {
        "encoding": "mapping",
        "key": "t_uint64",
        "label": "mapping(uint64 => address)",
        "numberOfBytes": "32",
        "value": "t_address"
      },
      "t_mapping(t_uint64,t_array(t_uint64)dyn_storage)": {
        "encoding": "mapping",
        "key": "t_uint64",
        "label": "mapping(uint64 => uint64[])",
        "numberOfBytes": "32",
        "value": "t_array(t_uint64)dyn_storage"
      },
      "t_mapping(t_uint64,t_bool)": {
        "encoding": "mapping",
        "key": "t_uint64",
        "label": "mapping(uint64 => bool)",
        "numberOfBytes": "32",
        "value": "t_bool"
      },
      "t_mapping(t_uint64,t_mapping(t_address,t_uint64))": {
        "encoding": "mapping",
        "key": "t_uint64",
        "label": "mapping(uint64 => mapping(address => uint64))",
        "numberOfBytes": "32",
        "value": "t_mapping(t_address,t_uint64)"
      },
      "t_mapping(t_uint64,t_string_storage)": {
        "encoding": "mapping",
        "key": "t_uint64",
        "label": "mapping(uint64 => string)",
        "numberOfBytes": "32",
        "value": "t_string_storage"
      },
      "t_mapping(t_uint64,t_struct(Equipment)4832_storage)": {
        "encoding": "mapping",
        "key": "t_uint64",
        "label": "mapping(uint64 => struct IERC6220.Equipment)",
        "numberOfBytes": "32",
        "value": "t_struct(Equipment)4832_storage"
      },
      "t_mapping(t_uint64,t_struct(Part)5433_storage)": {
        "encoding": "mapping",
        "key": "t_uint64",
        "label": "mapping(uint64 => struct IRMRKCatalog.Part)",
        "numberOfBytes": "32",
        "value": "t_struct(Part)5433_storage"
      },
      "t_mapping(t_uint64,t_uint64)": {
        "encoding": "mapping",
        "key": "t_uint64",
        "label": "mapping(uint64 => uint64)",
        "numberOfBytes": "32",
        "value": "t_uint64"
      },
      "t_string_storage": {
        "encoding": "bytes",
        "label": "string",
        "numberOfBytes": "32"
      },
      "t_struct(Child)5051_storage": {
        "encoding": "inplace",
        "label": "struct IERC7401.Child",
        "members": [
          {
            "astId": 5048,
            "contract": "contracts/Equippable.sol:Equippale",
            "label": "tokenId",
            "offset": 0,
            "slot": "0",
            "type": "t_uint256"
          },
          {
            "astId": 5050,
            "contract": "contracts/Equippable.sol:Equippale",
            "label": "contractAddress",
            "offset": 0,
            "slot": "1",
            "type": "t_address"
          }
        ],
        "numberOfBytes": "64"
      },
      "t_struct(DirectOwner)4990_storage": {
        "encoding": "inplace",
        "label": "struct IERC7401.DirectOwner",
        "members": [
          {
            "astId": 4987,
            "contract": "contracts/Equippable.sol:Equippale",
            "label": "tokenId",
            "offset": 0,
            "slot": "0",
            "type": "t_uint256"
          },
          {
            "astId": 4989,
            "contract": "contracts/Equippable.sol:Equippale",
            "label": "ownerAddress",
            "offset": 0,
            "slot": "1",
            "type": "t_address"
          }
        ],
        "numberOfBytes": "64"
      },
      "t_struct(Equipment)4832_storage": {
        "encoding": "inplace",
        "label": "struct IERC6220.Equipment",
        "members": [
          {
            "astId": 4825,
            "contract": "contracts/Equippable.sol:Equippale",
            "label": "assetId",
            "offset": 0,
            "slot": "0",
            "type": "t_uint64"
          },
          {
            "astId": 4827,
            "contract": "contracts/Equippable.sol:Equippale",
            "label": "childAssetId",
            "offset": 8,
            "slot": "0",
            "type": "t_uint64"
          },
          {
            "astId": 4829,
            "contract": "contracts/Equippable.sol:Equippale",
            "label": "childId",
            "offset": 0,
            "slot": "1",
            "type": "t_uint256"
          },
          {
            "astId": 4831,
            "contract": "contracts/Equippable.sol:Equippale",
            "label": "childEquippableAddress",
            "offset": 0,
            "slot": "2",
            "type": "t_address"
          }
        ],
        "numberOfBytes": "96"
      },
      "t_struct(Part)5433_storage": {
        "encoding": "inplace",
        "label": "struct IRMRKCatalog.Part",
        "members": [
          {
            "astId": 5425,
            "contract": "contracts/Equippable.sol:Equippale",
            "label": "itemType",
            "offset": 0,
            "slot": "0",
            "type": "t_enum(ItemType)5421"
          },
          {
            "astId": 5427,
            "contract": "contracts/Equippable.sol:Equippale",
            "label": "z",
            "offset": 1,
            "slot": "0",
            "type": "t_uint8"
          },
          {
            "astId": 5430,
            "contract": "contracts/Equippable.sol:Equippale",
            "label": "equippable",
            "offset": 0,
            "slot": "1",
            "type": "t_array(t_address)dyn_storage"
          },
          {
            "astId": 5432,
            "contract": "contracts/Equippable.sol:Equippale",
            "label": "metadataURI",
            "offset": 0,
            "slot": "2",
            "type": "t_string_storage"
          }
        ],
        "numberOfBytes": "96"
      },
      "t_uint256": {
        "encoding": "inplace",
        "label": "uint256",
        "numberOfBytes": "32"
      },
      "t_uint64": {
        "encoding": "inplace",
        "label": "uint64",
        "numberOfBytes": "8"
      },
      "t_uint8": {
        "encoding": "inplace",
        "label": "uint8",
        "numberOfBytes": "1"
      }
    }
  }
}